{
  "contractName": "ERC165",
  "abi": [
    {
      "inputs": [],
      "stateMutability": "nonpayable",
      "type": "constructor"
    },
    {
      "inputs": [
        {
          "internalType": "bytes4",
          "name": "interfaceId",
          "type": "bytes4"
        }
      ],
      "name": "supportsInterface",
      "outputs": [
        {
          "internalType": "bool",
          "name": "",
          "type": "bool"
        }
      ],
      "stateMutability": "view",
      "type": "function"
    },
    {
      "inputs": [
        {
          "internalType": "bytes4",
          "name": "interfaceId",
          "type": "bytes4"
        }
      ],
      "name": "_registerInterface",
      "outputs": [],
      "stateMutability": "nonpayable",
      "type": "function"
    }
  ],
  "bytecode": "0x608060405234801561001057600080fd5b506100437f75e79be6cc7b0fa1c9ef93c49173e275135de3af55610b234fd35ad9f20df381640100000000610048810204565b610115565b7fffffffff0000000000000000000000000000000000000000000000000000000080821614156100d8576040517f08c379a000000000000000000000000000000000000000000000000000000000815260206004820152601960248201527f4552433136353a20696e76616c696420696e7465726661636500000000000000604482015260640160405180910390fd5b7fffffffff00000000000000000000000000000000000000000000000000000000166000908152602081905260409020805460ff19166001179055565b6101b1806101246000396000f3fe608060405234801561001057600080fd5b5060043610610052577c0100000000000000000000000000000000000000000000000000000000600035046301ffc9a78114610057578063068417d914610098575b600080fd5b61008461006536600461014a565b600160e060020a03191660009081526020819052604090205460ff1690565b604051901515815260200160405180910390f35b6100ab6100a636600461014a565b6100ad565b005b600160e060020a03198082161415610125576040517f08c379a000000000000000000000000000000000000000000000000000000000815260206004820152601960248201527f4552433136353a20696e76616c696420696e7465726661636500000000000000604482015260640160405180910390fd5b600160e060020a0319166000908152602081905260409020805460ff19166001179055565b60006020828403121561015c57600080fd5b8135600160e060020a03198116811461017457600080fd5b939250505056fea2646970667358221220c6939c68e93603f47ff5ce77bfdf743e56fcae3a5b171dbfdb6a5eba34e2f2f464736f6c634300080b0033",
  "immutableReferences": {},
  "source": "// SPDX-License-Identifier: MIT\npragma solidity ^0.8.0;\n\nimport './interfaces/IERC165.sol';\n\ncontract ERC165 is IERC165 {\n\n    // hash table to keep track of contract fingerprint data of data of byte function conversations\n    mapping(bytes4 => bool) private _supportedInterfaces;\n\n    constructor(){\n        _registerInterface(bytes4(keccak256('supportInterface(bytes4)')));\n    }\n\n    function supportsInterface(bytes4 interfaceId) external override view returns (bool){\n        return _supportedInterfaces[interfaceId]; \n    }\n\n    // registering the intyerface(comes from within)\n    function _registerInterface(bytes4 interfaceId) public {\n        require(interfaceId != 0xffffffff, 'ERC165: invalid interface');\n         _supportedInterfaces[interfaceId] = true;\n    }\n}",
  "sourcePath": "/Users/bhanuprakashkandregula/Documents/programming/nft-marketplace-truffle-ganache/src/contracts/ERC165.sol",
  "compiler": {
    "name": "solc",
    "version": "0.8.11+commit.d7f03943.Emscripten.clang"
  },
  "schemaVersion": "3.4.4",
  "updatedAt": "2022-01-23T00:55:43.585Z",
  "devdoc": {
    "kind": "dev",
    "methods": {},
    "version": 1
  },
  "userdoc": {
    "kind": "user",
    "methods": {},
    "version": 1
  }
}