{
  "contractName": "ERC721Metadata",
  "abi": [
    {
      "inputs": [
        {
          "internalType": "string",
          "name": "named",
          "type": "string"
        },
        {
          "internalType": "string",
          "name": "symbolified",
          "type": "string"
        }
      ],
      "stateMutability": "nonpayable",
      "type": "constructor"
    },
    {
      "inputs": [
        {
          "internalType": "bytes4",
          "name": "interfaceId",
          "type": "bytes4"
        }
      ],
      "name": "_registerInterface",
      "outputs": [],
      "stateMutability": "nonpayable",
      "type": "function"
    },
    {
      "inputs": [
        {
          "internalType": "bytes4",
          "name": "interfaceId",
          "type": "bytes4"
        }
      ],
      "name": "supportsInterface",
      "outputs": [
        {
          "internalType": "bool",
          "name": "",
          "type": "bool"
        }
      ],
      "stateMutability": "view",
      "type": "function"
    },
    {
      "inputs": [],
      "name": "name",
      "outputs": [
        {
          "internalType": "string",
          "name": "",
          "type": "string"
        }
      ],
      "stateMutability": "view",
      "type": "function"
    },
    {
      "inputs": [],
      "name": "symbol",
      "outputs": [
        {
          "internalType": "string",
          "name": "",
          "type": "string"
        }
      ],
      "stateMutability": "view",
      "type": "function"
    }
  ],
  "bytecode": "0x608060405234801561001057600080fd5b506040516106f83803806106f883398101604081905261002f91610303565b6100617f75e79be6cc7b0fa1c9ef93c49173e275135de3af55610b234fd35ad9f20df3816401000000006100c2810204565b6100937f6c5b7360b116f8fd1d2a1ccb905de5c6a9e91e31b88b8db3cd997e184f357e9f6401000000006100c2810204565b81516100a690600190602085019061018f565b5080516100ba90600290602084019061018f565b5050506103ba565b7fffffffff000000000000000000000000000000000000000000000000000000008082161415610152576040517f08c379a000000000000000000000000000000000000000000000000000000000815260206004820152601960248201527f4552433136353a20696e76616c696420696e7465726661636500000000000000604482015260640160405180910390fd5b7fffffffff00000000000000000000000000000000000000000000000000000000166000908152602081905260409020805460ff19166001179055565b82805461019b90610366565b90600052602060002090601f0160209004810192826101bd5760008555610203565b82601f106101d657805160ff1916838001178555610203565b82800160010185558215610203579182015b828111156102035782518255916020019190600101906101e8565b5061020f929150610213565b5090565b5b8082111561020f5760008155600101610214565b7f4e487b7100000000000000000000000000000000000000000000000000000000600052604160045260246000fd5b600082601f83011261026857600080fd5b81516001604060020a038082111561028257610282610228565b604051601f8301601f19908116603f011681019082821181831017156102aa576102aa610228565b816040528381526020925086838588010111156102c657600080fd5b600091505b838210156102e857858201830151818301840152908201906102cb565b838211156102f95760008385830101525b9695505050505050565b6000806040838503121561031657600080fd5b82516001604060020a038082111561032d57600080fd5b61033986838701610257565b9350602085015191508082111561034f57600080fd5b5061035c85828601610257565b9150509250929050565b60028104600182168061037a57607f821691505b602082108114156103b4577f4e487b7100000000000000000000000000000000000000000000000000000000600052602260045260246000fd5b50919050565b61032f806103c96000396000f3fe608060405234801561001057600080fd5b5060043610610068577c0100000000000000000000000000000000000000000000000000000000600035046301ffc9a7811461006d578063068417d9146100af57806306fdde03146100c457806395d89b41146100d9575b600080fd5b61009a61007b36600461021f565b600160e060020a03191660009081526020819052604090205460ff1690565b60405190151581526020015b60405180910390f35b6100c26100bd36600461021f565b6100e1565b005b6100cc61017e565b6040516100a69190610250565b6100cc610210565b600160e060020a03198082161415610159576040517f08c379a000000000000000000000000000000000000000000000000000000000815260206004820152601960248201527f4552433136353a20696e76616c696420696e7465726661636500000000000000604482015260640160405180910390fd5b600160e060020a0319166000908152602081905260409020805460ff19166001179055565b60606001805461018d906102a5565b80601f01602080910402602001604051908101604052809291908181526020018280546101b9906102a5565b80156102065780601f106101db57610100808354040283529160200191610206565b820191906000526020600020905b8154815290600101906020018083116101e957829003601f168201915b5050505050905090565b60606002805461018d906102a5565b60006020828403121561023157600080fd5b8135600160e060020a03198116811461024957600080fd5b9392505050565b600060208083528351808285015260005b8181101561027d57858101830151858201604001528201610261565b8181111561028f576000604083870101525b50601f01601f1916929092016040019392505050565b6002810460018216806102b957607f821691505b602082108114156102f3577f4e487b7100000000000000000000000000000000000000000000000000000000600052602260045260246000fd5b5091905056fea2646970667358221220c457cafb64b076d16df8e9cfc53c0e54b95975d18ba3697c1fbaf383243ca68c64736f6c634300080b0033",
  "immutableReferences": {},
  "source": "// SPDX-License-Identifier: MIT\npragma solidity ^0.8.0;\n\n\nimport './interfaces/IERC721Metadata.sol';\nimport './ERC165.sol';\n\ncontract ERC721Metadata is IERC721Metadata, ERC165 {\n    string private _name;\n    string private _symbol;\n\n    constructor(string memory named, string memory symbolified){\n\n        _registerInterface(bytes4(keccak256('name(bytes4)') ^\n        keccak256('symbol(bytes4)'))\n        );\n\n        _name = named;\n        _symbol = symbolified;\n    }\n\n    function name() external view override returns(string memory){\n        return _name;\n    }\n\n    function symbol() external view override returns(string memory){\n        return _symbol;\n    }   \n}",
  "sourcePath": "/Users/bhanuprakashkandregula/Documents/programming/nft-marketplace-starter-kit/src/contracts/ERC721Metadata.sol",
  "compiler": {
    "name": "solc",
    "version": "0.8.11+commit.d7f03943.Emscripten.clang"
  },
  "schemaVersion": "3.4.4",
  "updatedAt": "2022-01-22T23:44:07.645Z",
  "devdoc": {
    "kind": "dev",
    "methods": {},
    "version": 1
  },
  "userdoc": {
    "kind": "user",
    "methods": {},
    "version": 1
  }
}