{
  "contractName": "ERC721Connector",
  "abi": [
    {
      "inputs": [
        {
          "internalType": "string",
          "name": "name",
          "type": "string"
        },
        {
          "internalType": "string",
          "name": "symbol",
          "type": "string"
        }
      ],
      "stateMutability": "nonpayable",
      "type": "constructor"
    },
    {
      "anonymous": false,
      "inputs": [
        {
          "indexed": true,
          "internalType": "address",
          "name": "from",
          "type": "address"
        },
        {
          "indexed": true,
          "internalType": "address",
          "name": "to",
          "type": "address"
        },
        {
          "indexed": true,
          "internalType": "uint256",
          "name": "tokenId",
          "type": "uint256"
        }
      ],
      "name": "Transfer",
      "type": "event"
    },
    {
      "inputs": [
        {
          "internalType": "address",
          "name": "_owner",
          "type": "address"
        }
      ],
      "name": "balanceOf",
      "outputs": [
        {
          "internalType": "uint256",
          "name": "",
          "type": "uint256"
        }
      ],
      "stateMutability": "view",
      "type": "function"
    },
    {
      "inputs": [],
      "name": "name",
      "outputs": [
        {
          "internalType": "string",
          "name": "",
          "type": "string"
        }
      ],
      "stateMutability": "view",
      "type": "function"
    },
    {
      "inputs": [
        {
          "internalType": "uint256",
          "name": "_tokenId",
          "type": "uint256"
        }
      ],
      "name": "ownerOf",
      "outputs": [
        {
          "internalType": "address",
          "name": "",
          "type": "address"
        }
      ],
      "stateMutability": "view",
      "type": "function"
    },
    {
      "inputs": [],
      "name": "symbol",
      "outputs": [
        {
          "internalType": "string",
          "name": "",
          "type": "string"
        }
      ],
      "stateMutability": "view",
      "type": "function"
    }
  ],
  "bytecode": "0x608060405234801561001057600080fd5b506040516106a03803806106a083398101604081905261002f916101d8565b815182908290610046906000906020850190610064565b50805161005a906001906020840190610064565b505050505061028f565b8280546100709061023b565b90600052602060002090601f01602090048101928261009257600085556100d8565b82601f106100ab57805160ff19168380011785556100d8565b828001600101855582156100d8579182015b828111156100d85782518255916020019190600101906100bd565b506100e49291506100e8565b5090565b5b808211156100e457600081556001016100e9565b7f4e487b7100000000000000000000000000000000000000000000000000000000600052604160045260246000fd5b600082601f83011261013d57600080fd5b81516001604060020a0380821115610157576101576100fd565b604051601f8301601f19908116603f0116810190828211818310171561017f5761017f6100fd565b8160405283815260209250868385880101111561019b57600080fd5b600091505b838210156101bd57858201830151818301840152908201906101a0565b838211156101ce5760008385830101525b9695505050505050565b600080604083850312156101eb57600080fd5b82516001604060020a038082111561020257600080fd5b61020e8683870161012c565b9350602085015191508082111561022457600080fd5b506102318582860161012c565b9150509250929050565b60028104600182168061024f57607f821691505b60208210811415610289577f4e487b7100000000000000000000000000000000000000000000000000000000600052602260045260246000fd5b50919050565b6104028061029e6000396000f3fe608060405234801561001057600080fd5b5060043610610068577c0100000000000000000000000000000000000000000000000000000000600035046306fdde03811461006d5780636352211e1461008b57806370a08231146100c357806395d89b41146100e4575b600080fd5b6100756100ec565b6040516100829190610270565b60405180910390f35b61009e6100993660046102c5565b61017e565b60405173ffffffffffffffffffffffffffffffffffffffff9091168152602001610082565b6100d66100d13660046102de565b6101e9565b604051908152602001610082565b610075610261565b6060600080546100fb9061031b565b80601f01602080910402602001604051908101604052809291908181526020018280546101279061031b565b80156101745780601f1061014957610100808354040283529160200191610174565b820191906000526020600020905b81548152906001019060200180831161015757829003601f168201915b5050505050905090565b60008181526002602052604081205473ffffffffffffffffffffffffffffffffffffffff16806101e3576040517f08c379a00000000000000000000000000000000000000000000000000000000081526004016101da9061036f565b60405180910390fd5b92915050565b600073ffffffffffffffffffffffffffffffffffffffff8216610238576040517f08c379a00000000000000000000000000000000000000000000000000000000081526004016101da9061036f565b5073ffffffffffffffffffffffffffffffffffffffff1660009081526003602052604090205490565b6060600180546100fb9061031b565b600060208083528351808285015260005b8181101561029d57858101830151858201604001528201610281565b818111156102af576000604083870101525b50601f01601f1916929092016040019392505050565b6000602082840312156102d757600080fd5b5035919050565b6000602082840312156102f057600080fd5b813573ffffffffffffffffffffffffffffffffffffffff8116811461031457600080fd5b9392505050565b60028104600182168061032f57607f821691505b60208210811415610369577f4e487b7100000000000000000000000000000000000000000000000000000000600052602260045260246000fd5b50919050565b6020808252602b908201527f4552433732313a20416c657274202d2054686973206f776e657220686173207a60408201527f65726f206164647265737300000000000000000000000000000000000000000060608201526080019056fea2646970667358221220782681c37dd53835819387a1302c3bd5056dee6b913a867509096249a0d8244a64736f6c634300080b0033",
  "immutableReferences": {},
  "source": "// SPDX-License-Identifier: MIT\npragma solidity ^0.8.0;\n\nimport './ERC721Metadata.sol';\nimport './ERC721.sol';\n\ncontract ERC721Connector is ERC721Metadata, ERC721 {\n    constructor(string memory name, string memory symbol) ERC721Metadata(name, symbol) {\n        \n    }\n\n\n}",
  "sourcePath": "/Users/bhanuprakashkandregula/Documents/programming/nft-marketplace-starter-kit/src/contracts/ERC721Connector.sol",
  "compiler": {
    "name": "solc",
    "version": "0.8.11+commit.d7f03943.Emscripten.clang"
  },
  "schemaVersion": "3.4.4",
  "updatedAt": "2022-01-22T07:56:44.963Z",
  "devdoc": {
    "kind": "dev",
    "methods": {},
    "version": 1
  },
  "userdoc": {
    "kind": "user",
    "methods": {},
    "version": 1
  }
}