{
  "contractName": "ERC721Enumerable",
  "abi": [
    {
      "inputs": [],
      "stateMutability": "nonpayable",
      "type": "constructor"
    },
    {
      "anonymous": false,
      "inputs": [
        {
          "indexed": true,
          "internalType": "address",
          "name": "_owner",
          "type": "address"
        },
        {
          "indexed": true,
          "internalType": "address",
          "name": "_approved",
          "type": "address"
        },
        {
          "indexed": true,
          "internalType": "uint256",
          "name": "_tokenId",
          "type": "uint256"
        }
      ],
      "name": "Approval",
      "type": "event"
    },
    {
      "anonymous": false,
      "inputs": [
        {
          "indexed": true,
          "internalType": "address",
          "name": "_from",
          "type": "address"
        },
        {
          "indexed": true,
          "internalType": "address",
          "name": "_to",
          "type": "address"
        },
        {
          "indexed": true,
          "internalType": "uint256",
          "name": "_tokenId",
          "type": "uint256"
        }
      ],
      "name": "Transfer",
      "type": "event"
    },
    {
      "inputs": [
        {
          "internalType": "bytes4",
          "name": "interfaceId",
          "type": "bytes4"
        }
      ],
      "name": "_registerInterface",
      "outputs": [],
      "stateMutability": "nonpayable",
      "type": "function"
    },
    {
      "inputs": [
        {
          "internalType": "address",
          "name": "_to",
          "type": "address"
        },
        {
          "internalType": "uint256",
          "name": "_tokenId",
          "type": "uint256"
        }
      ],
      "name": "approve",
      "outputs": [],
      "stateMutability": "nonpayable",
      "type": "function"
    },
    {
      "inputs": [
        {
          "internalType": "address",
          "name": "_owner",
          "type": "address"
        }
      ],
      "name": "balanceOf",
      "outputs": [
        {
          "internalType": "uint256",
          "name": "",
          "type": "uint256"
        }
      ],
      "stateMutability": "view",
      "type": "function"
    },
    {
      "inputs": [
        {
          "internalType": "uint256",
          "name": "_tokenId",
          "type": "uint256"
        }
      ],
      "name": "ownerOf",
      "outputs": [
        {
          "internalType": "address",
          "name": "",
          "type": "address"
        }
      ],
      "stateMutability": "view",
      "type": "function"
    },
    {
      "inputs": [
        {
          "internalType": "bytes4",
          "name": "interfaceId",
          "type": "bytes4"
        }
      ],
      "name": "supportsInterface",
      "outputs": [
        {
          "internalType": "bool",
          "name": "",
          "type": "bool"
        }
      ],
      "stateMutability": "view",
      "type": "function"
    },
    {
      "inputs": [
        {
          "internalType": "address",
          "name": "_from",
          "type": "address"
        },
        {
          "internalType": "address",
          "name": "_to",
          "type": "address"
        },
        {
          "internalType": "uint256",
          "name": "_tokenId",
          "type": "uint256"
        }
      ],
      "name": "transferFrom",
      "outputs": [],
      "stateMutability": "nonpayable",
      "type": "function"
    },
    {
      "inputs": [],
      "name": "totalSupply",
      "outputs": [
        {
          "internalType": "uint256",
          "name": "",
          "type": "uint256"
        }
      ],
      "stateMutability": "view",
      "type": "function"
    },
    {
      "inputs": [
        {
          "internalType": "uint256",
          "name": "index",
          "type": "uint256"
        }
      ],
      "name": "tokenByIndex",
      "outputs": [
        {
          "internalType": "uint256",
          "name": "",
          "type": "uint256"
        }
      ],
      "stateMutability": "view",
      "type": "function"
    },
    {
      "inputs": [
        {
          "internalType": "address",
          "name": "owner",
          "type": "address"
        },
        {
          "internalType": "uint256",
          "name": "index",
          "type": "uint256"
        }
      ],
      "name": "tokenOfOwnerByIndex",
      "outputs": [
        {
          "internalType": "uint256",
          "name": "",
          "type": "uint256"
        }
      ],
      "stateMutability": "view",
      "type": "function"
    }
  ],
  "bytecode": "0x608060405234801561001057600080fd5b506100437f75e79be6cc7b0fa1c9ef93c49173e275135de3af55610b234fd35ad9f20df3816401000000006100ac810204565b6100757f86d85597e207351a6b62a46a8b3ad763589db208076d3952eb6054f16b4447a06401000000006100ac810204565b6100a77f2aa3f4710f58b303977da296b62cadae054c8971d883298d8ed6c6c0565c13c16401000000006100ac810204565b610179565b7fffffffff00000000000000000000000000000000000000000000000000000000808216141561013c576040517f08c379a000000000000000000000000000000000000000000000000000000000815260206004820152601960248201527f4552433136353a20696e76616c696420696e7465726661636500000000000000604482015260640160405180910390fd5b7fffffffff00000000000000000000000000000000000000000000000000000000166000908152602081905260409020805460ff19166001179055565b610994806101886000396000f3fe608060405234801561001057600080fd5b50600436106100b0576000357c01000000000000000000000000000000000000000000000000000000009004806323b872dd1161008357806323b872dd146101315780632f745c59146101445780634f6ccce7146101575780636352211e1461016a57806370a082311461019557600080fd5b806301ffc9a7146100b5578063068417d9146100f7578063095ea7b31461010c57806318160ddd1461011f575b600080fd5b6100e26100c336600461078d565b600160e060020a03191660009081526020819052604090205460ff1690565b60405190151581526020015b60405180910390f35b61010a61010536600461078d565b6101a8565b005b61010a61011a3660046107da565b61022f565b6004545b6040519081526020016100ee565b61010a61013f366004610804565b610365565b6101236101523660046107da565b610388565b610123610165366004610840565b610421565b61017d610178366004610840565b6104a2565b604051600160a060020a0390911681526020016100ee565b6101236101a3366004610859565b6104e0565b600160e060020a0319808216141561020a5760405160e560020a62461bcd02815260206004820152601960248201527f4552433136353a20696e76616c696420696e746572666163650000000000000060448201526064015b60405180910390fd5b600160e060020a0319166000908152602081905260409020805460ff19166001179055565b600061023a826104a2565b905080600160a060020a031683600160a060020a031614156102a15760405160e560020a62461bcd02815260206004820181905260248201527f4572726f723a20617070726f76616c20746f2063757272656e74206f776e65726044820152606401610201565b33600160a060020a038216146102fc5760405160e560020a62461bcd02815260206004820152601f60248201527f43757272656e742063616c6c6572206973206e6f7420746865206f776e6572006044820152606401610201565b600082815260036020526040808220805473ffffffffffffffffffffffffffffffffffffffff1916600160a060020a0387811691821790925591518593918516917f8c5be1e5ebec7d5bd14f71427d1e84f3dd0314c0f7b2291e5b200ac8c7c3b92591a4505050565b61036f3382610527565b61037857600080fd5b6103838383836105b0565b505050565b6000610393836104e0565b82106103e45760405160e560020a62461bcd02815260206004820152601c60248201527f6f776e657220696e646578206973206f7574206f6620626f756e6473000000006044820152606401610201565b600160a060020a038316600090815260066020526040902080548390811061040e5761040e610874565b9060005260206000200154905092915050565b600061042c60045490565b821061047d5760405160e560020a62461bcd02815260206004820152601d60248201527f476c6f62616c20696e646578206973206f7574206f6620626f756e64730000006044820152606401610201565b6004828154811061049057610490610874565b90600052602060002001549050919050565b600081815260016020526040812054600160a060020a0316806104da5760405160e560020a62461bcd028152600401610201906108a3565b92915050565b6000600160a060020a03821661050b5760405160e560020a62461bcd028152600401610201906108a3565b50600160a060020a031660009081526002602052604090205490565b600081815260016020526040812054600160a060020a031661058e5760405160e560020a62461bcd02815260206004820152601560248201527f546f6b656e20646f6573206e6f742065786973747300000000000000000000006044820152606401610201565b6000610599836104a2565b600160a060020a0385811691161491505092915050565b600160a060020a03821661062e5760405160e560020a62461bcd028152602060048201526024808201527f4552433732313a205452414e5346455220544f20544845205a45524f2041444460448201527f52455353000000000000000000000000000000000000000000000000000000006064820152608401610201565b82600160a060020a0316610641826104a2565b600160a060020a0316146106c05760405160e560020a62461bcd02815260206004820152603160248201527f547279696e6720746f207472616e736665722074686520746f6b656e2061646460448201527f7265737320646f6573206e6f74206f776e0000000000000000000000000000006064820152608401610201565b600160a060020a0383166000908152600260205260409020546106e59060019061092f565b600160a060020a038085166000908152600260205260408082209390935590841681522054610715906001610946565b600160a060020a0380841660008181526002602090815260408083209590955585825260019052838120805473ffffffffffffffffffffffffffffffffffffffff1916831790559251849391928716917fddf252ad1be2c89b69c2b068fc378daa952ba7f163c4a11628f55a4df523b3ef91a4505050565b60006020828403121561079f57600080fd5b8135600160e060020a0319811681146107b757600080fd5b9392505050565b8035600160a060020a03811681146107d557600080fd5b919050565b600080604083850312156107ed57600080fd5b6107f6836107be565b946020939093013593505050565b60008060006060848603121561081957600080fd5b610822846107be565b9250610830602085016107be565b9150604084013590509250925092565b60006020828403121561085257600080fd5b5035919050565b60006020828403121561086b57600080fd5b6107b7826107be565b7f4e487b7100000000000000000000000000000000000000000000000000000000600052603260045260246000fd5b6020808252602b908201527f4552433732313a20416c657274202d2054686973206f776e657220686173207a60408201527f65726f2061646472657373000000000000000000000000000000000000000000606082015260800190565b7f4e487b7100000000000000000000000000000000000000000000000000000000600052601160045260246000fd5b60008282101561094157610941610900565b500390565b6000821982111561095957610959610900565b50019056fea2646970667358221220981402ce9f2d7609442ac7d9ed106bb82d8c75f3bab9e235f77c16ac2166cf8d64736f6c634300080b0033",
  "immutableReferences": {},
  "source": "// SPDX-License-Identifier: MIT\npragma solidity ^0.8.0;\n\nimport './ERC721.sol';\n\nimport './interfaces/IERC721Enumerable.sol';\n\ncontract ERC721Enumerable is ERC721, IERC721Enumerable {\n    // Places to keep the value if all tokens count\n    uint256[] private _allTokens;\n\n    // mapping from tokenId to position in _allTokens array\n    mapping(uint => uint) private _allTokensIndex;\n\n    // mapping of owner to list of all owner tokens ids\n    mapping(address => uint[]) private _ownedTokens; \n\n    // mapping from token Id to index of the owner tokens list\n    mapping(uint => uint) private _ownedTokensIndex;\n\n     // Interface ERC721Enumerable \n    // totalSupply\n    // tokenByIndex\n    // tokenOfOwnerByIndex\n    constructor(){\n        _registerInterface(bytes4(keccak256('totalSupply(bytes4)') ^\n        keccak256('tokenByIndex(bytes4)') ^\n        keccak256('tokenOfOwnerByIndex(bytes4)'))\n        );\n    }\n\n    // return sthe total supply of the allTokens array\n    function totalSupply() public view override  returns(uint256) {\n        return _allTokens.length;\n    }\n\n    // This mint function will overide the another mint function in ERC721.sol \n    function _mint(address to, uint256 tokenId) internal override(ERC721)  {\n        // super - key word will aloow us to grand the mint function fron ERC721.sol file \n        super._mint(to, tokenId);\n        _addTokensToAllTokenEnumeration(tokenId);\n        _addTokensToOwnerEmumeration(to, tokenId);\n    }\n\n    // a. add tokens to our total supply - to allTokens array, and set the position of the token indexes\n    function _addTokensToAllTokenEnumeration(uint tokenId) private {\n        // This will give us back the index where token ins stored in allTokens list\n        _allTokensIndex[tokenId] = _allTokens.length; \n        // This will push the recent added token to an _allTokens array \n        _allTokens.push(tokenId);\n    }  \n\n    // b. what are all the tokens does specific owner consists of\n    function _addTokensToOwnerEmumeration(address to, uint tokenId) private {\n        // a. add address and tokenId to the ownedTokens\n        _ownedTokens[to].push(tokenId);\n        // b. ownedTokensIndex tokenId set to address of ownedTokens position\n        _ownedTokensIndex[tokenId] = _ownedTokens[to].length;\n    }\n\n    // a. one that returns tokenByIndex\n    function tokenByIndex(uint index) public view override returns (uint){\n        // make sure that the index is not out of bounds of total supply\n        require(index < totalSupply(), 'Global index is out of bounds');\n        return _allTokens[index];\n    }\n\n    // b. another on ethat returns tokenOfOwnerByIndex\n    function tokenOfOwnerByIndex(address owner, uint index) public view override returns(uint) {\n        require(index < balanceOf(owner), 'owner index is out of bounds');\n        return _ownedTokens[owner][index];\n    }\n\n    \n    \n}",
  "sourcePath": "/Users/bhanuprakashkandregula/Documents/programming/nft-marketplace-truffle-ganache/src/contracts/ERC721Enumerable.sol",
  "compiler": {
    "name": "solc",
    "version": "0.8.11+commit.d7f03943.Emscripten.clang"
  },
  "schemaVersion": "3.4.4",
  "updatedAt": "2022-01-23T03:48:03.584Z",
  "devdoc": {
    "kind": "dev",
    "methods": {},
    "version": 1
  },
  "userdoc": {
    "kind": "user",
    "methods": {},
    "version": 1
  }
}