{
  "contractName": "ERC721Enumerable",
  "abi": [
    {
      "anonymous": false,
      "inputs": [
        {
          "indexed": true,
          "internalType": "address",
          "name": "from",
          "type": "address"
        },
        {
          "indexed": true,
          "internalType": "address",
          "name": "to",
          "type": "address"
        },
        {
          "indexed": true,
          "internalType": "uint256",
          "name": "tokenId",
          "type": "uint256"
        }
      ],
      "name": "Transfer",
      "type": "event"
    },
    {
      "inputs": [
        {
          "internalType": "address",
          "name": "_owner",
          "type": "address"
        }
      ],
      "name": "balanceOf",
      "outputs": [
        {
          "internalType": "uint256",
          "name": "",
          "type": "uint256"
        }
      ],
      "stateMutability": "view",
      "type": "function"
    },
    {
      "inputs": [
        {
          "internalType": "uint256",
          "name": "_tokenId",
          "type": "uint256"
        }
      ],
      "name": "ownerOf",
      "outputs": [
        {
          "internalType": "address",
          "name": "",
          "type": "address"
        }
      ],
      "stateMutability": "view",
      "type": "function"
    },
    {
      "inputs": [],
      "name": "totalSupply",
      "outputs": [
        {
          "internalType": "uint256",
          "name": "",
          "type": "uint256"
        }
      ],
      "stateMutability": "view",
      "type": "function"
    },
    {
      "inputs": [
        {
          "internalType": "uint256",
          "name": "index",
          "type": "uint256"
        }
      ],
      "name": "tokenByIndex",
      "outputs": [
        {
          "internalType": "uint256",
          "name": "",
          "type": "uint256"
        }
      ],
      "stateMutability": "view",
      "type": "function"
    },
    {
      "inputs": [
        {
          "internalType": "address",
          "name": "owner",
          "type": "address"
        },
        {
          "internalType": "uint256",
          "name": "index",
          "type": "uint256"
        }
      ],
      "name": "tokenOfOwnerByIndex",
      "outputs": [
        {
          "internalType": "uint256",
          "name": "",
          "type": "uint256"
        }
      ],
      "stateMutability": "view",
      "type": "function"
    }
  ],
  "bytecode": "0x608060405234801561001057600080fd5b50610428806100206000396000f3fe608060405234801561001057600080fd5b5060043610610073577c0100000000000000000000000000000000000000000000000000000000600035046318160ddd81146100785780632f745c591461008f5780634f6ccce7146100a25780636352211e146100b557806370a08231146100ed575b600080fd5b6002545b6040519081526020015b60405180910390f35b61007c61009d366004610301565b610100565b61007c6100b036600461032b565b6101ab565b6100c86100c336600461032b565b61022c565b60405173ffffffffffffffffffffffffffffffffffffffff9091168152602001610086565b61007c6100fb366004610344565b610277565b600061010b83610277565b82106101615760405160e560020a62461bcd02815260206004820152601c60248201527f6f776e657220696e646578206973206f7574206f6620626f756e64730000000060448201526064015b60405180910390fd5b73ffffffffffffffffffffffffffffffffffffffff8316600090815260046020526040902080548390811061019857610198610366565b9060005260206000200154905092915050565b60006101b660025490565b82106102075760405160e560020a62461bcd02815260206004820152601d60248201527f476c6f62616c20696e646578206973206f7574206f6620626f756e64730000006044820152606401610158565b6002828154811061021a5761021a610366565b90600052602060002001549050919050565b60008181526020819052604081205473ffffffffffffffffffffffffffffffffffffffff16806102715760405160e560020a62461bcd02815260040161015890610395565b92915050565b600073ffffffffffffffffffffffffffffffffffffffff82166102af5760405160e560020a62461bcd02815260040161015890610395565b5073ffffffffffffffffffffffffffffffffffffffff1660009081526001602052604090205490565b803573ffffffffffffffffffffffffffffffffffffffff811681146102fc57600080fd5b919050565b6000806040838503121561031457600080fd5b61031d836102d8565b946020939093013593505050565b60006020828403121561033d57600080fd5b5035919050565b60006020828403121561035657600080fd5b61035f826102d8565b9392505050565b7f4e487b7100000000000000000000000000000000000000000000000000000000600052603260045260246000fd5b6020808252602b908201527f4552433732313a20416c657274202d2054686973206f776e657220686173207a60408201527f65726f206164647265737300000000000000000000000000000000000000000060608201526080019056fea2646970667358221220c3d0ee29a020675139dde5bb8c155e2b381f5712a595f9b1df0ce97195652c5764736f6c634300080b0033",
  "immutableReferences": {},
  "source": "// SPDX-License-Identifier: MIT\npragma solidity ^0.8.0;\n\nimport './ERC721.sol';\n\ncontract ERC721Enumerable is ERC721 {\n    // Places to keep the value if all tokens count\n    uint256[] private _allTokens;\n\n    // mapping from tokenId to position in _allTokens array\n    mapping(uint => uint) private _allTokensIndex;\n\n    // mapping of owner to list of all owner tokens ids\n    mapping(address => uint[]) private _ownedTokens; \n\n    // mapping from token Id to index of the owner tokens list\n    mapping(uint => uint) private _ownedTokensIndex;\n\n    // return sthe total supply of the allTokens array\n    function totalSupply() public view returns(uint256) {\n        return _allTokens.length;\n    }\n\n    // This mint function will overide the another mint function in ERC721.sol \n    function _mint(address to, uint256 tokenId) internal override(ERC721)  {\n        // super - key word will aloow us to grand the mint function fron ERC721.sol file \n        super._mint(to, tokenId);\n        _addTokensToAllTokenEnumeration(tokenId);\n        _addTokensToOwnerEmumeration(to, tokenId);\n    }\n\n    // a. add tokens to our total supply - to allTokens array, and set the position of the token indexes\n    function _addTokensToAllTokenEnumeration(uint tokenId) private {\n        // This will give us back the index where token ins stored in allTokens list\n        _allTokensIndex[tokenId] = _allTokens.length; \n        // This will push the recent added token to an _allTokens array \n        _allTokens.push(tokenId);\n    }  \n\n    // b. what are all the tokens does specific owner consists of\n    function _addTokensToOwnerEmumeration(address to, uint tokenId) private {\n        // a. add address and tokenId to the ownedTokens\n        _ownedTokens[to].push(tokenId);\n        // b. ownedTokensIndex tokenId set to address of ownedTokens position\n        _ownedTokensIndex[tokenId] = _ownedTokens[to].length;\n    }\n\n    // a. one that returns tokenByIndex\n    function tokenByIndex(uint index) public view returns (uint){\n        // make sure that the index is not out of bounds of total supply\n        require(index < totalSupply(), 'Global index is out of bounds');\n        return _allTokens[index];\n    }\n\n    // b. another on ethat returns tokenOfOwnerByIndex\n    function tokenOfOwnerByIndex(address owner, uint index) public view returns(uint) {\n        require(index < balanceOf(owner), 'owner index is out of bounds');\n        return _ownedTokens[owner][index];\n    }\n\n    \n    \n}",
  "sourcePath": "/Users/bhanuprakashkandregula/Documents/programming/nft-marketplace-starter-kit/src/contracts/ERC721Enumerable.sol",
  "compiler": {
    "name": "solc",
    "version": "0.8.11+commit.d7f03943.Emscripten.clang"
  },
  "schemaVersion": "3.4.4",
  "updatedAt": "2022-01-22T09:46:27.294Z",
  "devdoc": {
    "kind": "dev",
    "methods": {},
    "version": 1
  },
  "userdoc": {
    "kind": "user",
    "methods": {},
    "version": 1
  }
}