{
  "contractName": "ERC721Connector",
  "abi": [
    {
      "inputs": [
        {
          "internalType": "string",
          "name": "name",
          "type": "string"
        },
        {
          "internalType": "string",
          "name": "symbol",
          "type": "string"
        }
      ],
      "stateMutability": "nonpayable",
      "type": "constructor"
    },
    {
      "anonymous": false,
      "inputs": [
        {
          "indexed": true,
          "internalType": "address",
          "name": "owner",
          "type": "address"
        },
        {
          "indexed": true,
          "internalType": "address",
          "name": "approved",
          "type": "address"
        },
        {
          "indexed": true,
          "internalType": "uint256",
          "name": "tokenId",
          "type": "uint256"
        }
      ],
      "name": "Approval",
      "type": "event"
    },
    {
      "anonymous": false,
      "inputs": [
        {
          "indexed": true,
          "internalType": "address",
          "name": "from",
          "type": "address"
        },
        {
          "indexed": true,
          "internalType": "address",
          "name": "to",
          "type": "address"
        },
        {
          "indexed": true,
          "internalType": "uint256",
          "name": "tokenId",
          "type": "uint256"
        }
      ],
      "name": "Transfer",
      "type": "event"
    },
    {
      "inputs": [
        {
          "internalType": "address",
          "name": "_to",
          "type": "address"
        },
        {
          "internalType": "uint256",
          "name": "_tokenId",
          "type": "uint256"
        }
      ],
      "name": "approve",
      "outputs": [],
      "stateMutability": "nonpayable",
      "type": "function"
    },
    {
      "inputs": [
        {
          "internalType": "address",
          "name": "_owner",
          "type": "address"
        }
      ],
      "name": "balanceOf",
      "outputs": [
        {
          "internalType": "uint256",
          "name": "",
          "type": "uint256"
        }
      ],
      "stateMutability": "view",
      "type": "function"
    },
    {
      "inputs": [],
      "name": "name",
      "outputs": [
        {
          "internalType": "string",
          "name": "",
          "type": "string"
        }
      ],
      "stateMutability": "view",
      "type": "function"
    },
    {
      "inputs": [
        {
          "internalType": "uint256",
          "name": "_tokenId",
          "type": "uint256"
        }
      ],
      "name": "ownerOf",
      "outputs": [
        {
          "internalType": "address",
          "name": "",
          "type": "address"
        }
      ],
      "stateMutability": "view",
      "type": "function"
    },
    {
      "inputs": [],
      "name": "symbol",
      "outputs": [
        {
          "internalType": "string",
          "name": "",
          "type": "string"
        }
      ],
      "stateMutability": "view",
      "type": "function"
    },
    {
      "inputs": [
        {
          "internalType": "uint256",
          "name": "index",
          "type": "uint256"
        }
      ],
      "name": "tokenByIndex",
      "outputs": [
        {
          "internalType": "uint256",
          "name": "",
          "type": "uint256"
        }
      ],
      "stateMutability": "view",
      "type": "function"
    },
    {
      "inputs": [
        {
          "internalType": "address",
          "name": "owner",
          "type": "address"
        },
        {
          "internalType": "uint256",
          "name": "index",
          "type": "uint256"
        }
      ],
      "name": "tokenOfOwnerByIndex",
      "outputs": [
        {
          "internalType": "uint256",
          "name": "",
          "type": "uint256"
        }
      ],
      "stateMutability": "view",
      "type": "function"
    },
    {
      "inputs": [],
      "name": "totalSupply",
      "outputs": [
        {
          "internalType": "uint256",
          "name": "",
          "type": "uint256"
        }
      ],
      "stateMutability": "view",
      "type": "function"
    },
    {
      "inputs": [
        {
          "internalType": "address",
          "name": "_from",
          "type": "address"
        },
        {
          "internalType": "address",
          "name": "_to",
          "type": "address"
        },
        {
          "internalType": "uint256",
          "name": "_tokenId",
          "type": "uint256"
        }
      ],
      "name": "transferFrom",
      "outputs": [],
      "stateMutability": "nonpayable",
      "type": "function"
    }
  ],
  "bytecode": "0x60806040523480156200001157600080fd5b5060405162000cf338038062000cf38339810160408190526200003491620001fa565b8151829082906200004d9060009060208501906200006e565b508051620000639060019060208401906200006e565b5050505050620002ba565b8280546200007c9062000264565b90600052602060002090601f016020900481019282620000a05760008555620000eb565b82601f10620000bb57805160ff1916838001178555620000eb565b82800160010185558215620000eb579182015b82811115620000eb578251825591602001919060010190620000ce565b50620000f9929150620000fd565b5090565b5b80821115620000f95760008155600101620000fe565b7f4e487b7100000000000000000000000000000000000000000000000000000000600052604160045260246000fd5b600082601f8301126200015557600080fd5b81516001604060020a038082111562000172576200017262000114565b604051601f8301601f19908116603f011681019082821181831017156200019d576200019d62000114565b81604052838152602092508683858801011115620001ba57600080fd5b600091505b83821015620001de5785820183015181830184015290820190620001bf565b83821115620001f05760008385830101525b9695505050505050565b600080604083850312156200020e57600080fd5b82516001604060020a03808211156200022657600080fd5b620002348683870162000143565b935060208501519150808211156200024b57600080fd5b506200025a8582860162000143565b9150509250929050565b6002810460018216806200027957607f821691505b60208210811415620002b4577f4e487b7100000000000000000000000000000000000000000000000000000000600052602260045260246000fd5b50919050565b610a2980620002ca6000396000f3fe608060405234801561001057600080fd5b50600436106100b0576000357c0100000000000000000000000000000000000000000000000000000000900480632f745c59116100835780632f745c591461010d5780634f6ccce7146101205780636352211e1461013357806370a082311461015e57806395d89b411461017157600080fd5b806306fdde03146100b5578063095ea7b3146100d357806318160ddd146100e857806323b872dd146100fa575b600080fd5b6100bd610179565b6040516100ca91906107a3565b60405180910390f35b6100e66100e1366004610814565b61020b565b005b6005545b6040519081526020016100ca565b6100e661010836600461083e565b61036c565b6100ec61011b366004610814565b61038f565b6100ec61012e36600461087a565b610428565b61014661014136600461087a565b6104a9565b604051600160a060020a0390911681526020016100ca565b6100ec61016c366004610893565b6104e7565b6100bd61052e565b606060008054610188906108b5565b80601f01602080910402602001604051908101604052809291908181526020018280546101b4906108b5565b80156102015780601f106101d657610100808354040283529160200191610201565b820191906000526020600020905b8154815290600101906020018083116101e457829003601f168201915b5050505050905090565b6000610216826104a9565b905080600160a060020a031683600160a060020a031614156102a85760405160e560020a62461bcd02815260206004820152602260248201527f4572726f6f723a20617070726f76616c6b20746f2063757272656e74206f776e60448201527f657200000000000000000000000000000000000000000000000000000000000060648201526084015b60405180910390fd5b33600160a060020a038216146103035760405160e560020a62461bcd02815260206004820152601f60248201527f43757272656e742063616c6c6572206973206e6f7420746865206f776e657200604482015260640161029f565b600082815260046020526040808220805473ffffffffffffffffffffffffffffffffffffffff1916600160a060020a0387811691821790925591518593918516917f8c5be1e5ebec7d5bd14f71427d1e84f3dd0314c0f7b2291e5b200ac8c7c3b92591a4505050565b610376338261053d565b61037f57600080fd5b61038a8383836105c6565b505050565b600061039a836104e7565b82106103eb5760405160e560020a62461bcd02815260206004820152601c60248201527f6f776e657220696e646578206973206f7574206f6620626f756e647300000000604482015260640161029f565b600160a060020a038316600090815260076020526040902080548390811061041557610415610909565b9060005260206000200154905092915050565b600061043360055490565b82106104845760405160e560020a62461bcd02815260206004820152601d60248201527f476c6f62616c20696e646578206973206f7574206f6620626f756e6473000000604482015260640161029f565b6005828154811061049757610497610909565b90600052602060002001549050919050565b600081815260026020526040812054600160a060020a0316806104e15760405160e560020a62461bcd02815260040161029f90610938565b92915050565b6000600160a060020a0382166105125760405160e560020a62461bcd02815260040161029f90610938565b50600160a060020a031660009081526003602052604090205490565b606060018054610188906108b5565b600081815260026020526040812054600160a060020a03166105a45760405160e560020a62461bcd02815260206004820152601560248201527f546f6b656e20646f6573206e6f74206578697374730000000000000000000000604482015260640161029f565b60006105af836104a9565b600160a060020a0385811691161491505092915050565b600160a060020a0382166106445760405160e560020a62461bcd028152602060048201526024808201527f4552433732313a205452414e5346455220544f20544845205a45524f2041444460448201527f5245535300000000000000000000000000000000000000000000000000000000606482015260840161029f565b82600160a060020a0316610657826104a9565b600160a060020a0316146106d65760405160e560020a62461bcd02815260206004820152603160248201527f547279696e6720746f207472616e736665722074686520746f6b656e2061646460448201527f7265737320646f6573206e6f74206f776e000000000000000000000000000000606482015260840161029f565b600160a060020a0383166000908152600360205260409020546106fb906001906109c4565b600160a060020a03808516600090815260036020526040808220939093559084168152205461072b9060016109db565b600160a060020a0380841660008181526003602090815260408083209590955585825260029052838120805473ffffffffffffffffffffffffffffffffffffffff1916831790559251849391928716917fddf252ad1be2c89b69c2b068fc378daa952ba7f163c4a11628f55a4df523b3ef91a4505050565b600060208083528351808285015260005b818110156107d0578581018301518582016040015282016107b4565b818111156107e2576000604083870101525b50601f01601f1916929092016040019392505050565b8035600160a060020a038116811461080f57600080fd5b919050565b6000806040838503121561082757600080fd5b610830836107f8565b946020939093013593505050565b60008060006060848603121561085357600080fd5b61085c846107f8565b925061086a602085016107f8565b9150604084013590509250925092565b60006020828403121561088c57600080fd5b5035919050565b6000602082840312156108a557600080fd5b6108ae826107f8565b9392505050565b6002810460018216806108c957607f821691505b60208210811415610903577f4e487b7100000000000000000000000000000000000000000000000000000000600052602260045260246000fd5b50919050565b7f4e487b7100000000000000000000000000000000000000000000000000000000600052603260045260246000fd5b6020808252602b908201527f4552433732313a20416c657274202d2054686973206f776e657220686173207a60408201527f65726f2061646472657373000000000000000000000000000000000000000000606082015260800190565b7f4e487b7100000000000000000000000000000000000000000000000000000000600052601160045260246000fd5b6000828210156109d6576109d6610995565b500390565b600082198211156109ee576109ee610995565b50019056fea26469706673582212200b71e627deefefa448cb9f10346cb08b96bc7bab4ff7fd207fb1a2f91c2e32b364736f6c634300080b0033",
  "immutableReferences": {},
  "source": "// SPDX-License-Identifier: MIT\npragma solidity ^0.8.0;\n\nimport './ERC721Metadata.sol';\nimport './ERC721Enumerable.sol';\n\ncontract ERC721Connector is ERC721Metadata, ERC721Enumerable {\n    constructor(string memory name, string memory symbol) ERC721Metadata(name, symbol) {\n        \n    }\n\n\n}",
  "sourcePath": "/Users/bhanuprakashkandregula/Documents/programming/nft-marketplace-starter-kit/src/contracts/ERC721Connector.sol",
  "compiler": {
    "name": "solc",
    "version": "0.8.11+commit.d7f03943.Emscripten.clang"
  },
  "schemaVersion": "3.4.4",
  "updatedAt": "2022-01-22T11:29:48.296Z",
  "devdoc": {
    "kind": "dev",
    "methods": {},
    "version": 1
  },
  "userdoc": {
    "kind": "user",
    "methods": {},
    "version": 1
  }
}