{
  "contractName": "ERC721Enumerable",
  "abi": [
    {
      "anonymous": false,
      "inputs": [
        {
          "indexed": true,
          "internalType": "address",
          "name": "owner",
          "type": "address"
        },
        {
          "indexed": true,
          "internalType": "address",
          "name": "approved",
          "type": "address"
        },
        {
          "indexed": true,
          "internalType": "uint256",
          "name": "tokenId",
          "type": "uint256"
        }
      ],
      "name": "Approval",
      "type": "event"
    },
    {
      "anonymous": false,
      "inputs": [
        {
          "indexed": true,
          "internalType": "address",
          "name": "from",
          "type": "address"
        },
        {
          "indexed": true,
          "internalType": "address",
          "name": "to",
          "type": "address"
        },
        {
          "indexed": true,
          "internalType": "uint256",
          "name": "tokenId",
          "type": "uint256"
        }
      ],
      "name": "Transfer",
      "type": "event"
    },
    {
      "inputs": [
        {
          "internalType": "address",
          "name": "_to",
          "type": "address"
        },
        {
          "internalType": "uint256",
          "name": "_tokenId",
          "type": "uint256"
        }
      ],
      "name": "approve",
      "outputs": [],
      "stateMutability": "nonpayable",
      "type": "function"
    },
    {
      "inputs": [
        {
          "internalType": "address",
          "name": "_owner",
          "type": "address"
        }
      ],
      "name": "balanceOf",
      "outputs": [
        {
          "internalType": "uint256",
          "name": "",
          "type": "uint256"
        }
      ],
      "stateMutability": "view",
      "type": "function"
    },
    {
      "inputs": [
        {
          "internalType": "uint256",
          "name": "_tokenId",
          "type": "uint256"
        }
      ],
      "name": "ownerOf",
      "outputs": [
        {
          "internalType": "address",
          "name": "",
          "type": "address"
        }
      ],
      "stateMutability": "view",
      "type": "function"
    },
    {
      "inputs": [
        {
          "internalType": "address",
          "name": "_from",
          "type": "address"
        },
        {
          "internalType": "address",
          "name": "_to",
          "type": "address"
        },
        {
          "internalType": "uint256",
          "name": "_tokenId",
          "type": "uint256"
        }
      ],
      "name": "transferFrom",
      "outputs": [],
      "stateMutability": "nonpayable",
      "type": "function"
    },
    {
      "inputs": [],
      "name": "totalSupply",
      "outputs": [
        {
          "internalType": "uint256",
          "name": "",
          "type": "uint256"
        }
      ],
      "stateMutability": "view",
      "type": "function"
    },
    {
      "inputs": [
        {
          "internalType": "uint256",
          "name": "index",
          "type": "uint256"
        }
      ],
      "name": "tokenByIndex",
      "outputs": [
        {
          "internalType": "uint256",
          "name": "",
          "type": "uint256"
        }
      ],
      "stateMutability": "view",
      "type": "function"
    },
    {
      "inputs": [
        {
          "internalType": "address",
          "name": "owner",
          "type": "address"
        },
        {
          "internalType": "uint256",
          "name": "index",
          "type": "uint256"
        }
      ],
      "name": "tokenOfOwnerByIndex",
      "outputs": [
        {
          "internalType": "uint256",
          "name": "",
          "type": "uint256"
        }
      ],
      "stateMutability": "view",
      "type": "function"
    }
  ],
  "bytecode": "0x608060405234801561001057600080fd5b506108ab806100206000396000f3fe608060405234801561001057600080fd5b506004361061009a576000357c0100000000000000000000000000000000000000000000000000000000900480632f745c59116100785780632f745c59146100de5780634f6ccce7146100f15780636352211e1461010457806370a082311461012f57600080fd5b8063095ea7b31461009f57806318160ddd146100b457806323b872dd146100cb575b600080fd5b6100b26100ad3660046106ea565b610142565b005b6003545b6040519081526020015b60405180910390f35b6100b26100d9366004610714565b6102a3565b6100b86100ec3660046106ea565b6102c6565b6100b86100ff366004610750565b61035f565b610117610112366004610750565b6103e0565b604051600160a060020a0390911681526020016100c2565b6100b861013d366004610769565b61041e565b600061014d826103e0565b905080600160a060020a031683600160a060020a031614156101df5760405160e560020a62461bcd02815260206004820152602260248201527f4572726f6f723a20617070726f76616c6b20746f2063757272656e74206f776e60448201527f657200000000000000000000000000000000000000000000000000000000000060648201526084015b60405180910390fd5b33600160a060020a0382161461023a5760405160e560020a62461bcd02815260206004820152601f60248201527f43757272656e742063616c6c6572206973206e6f7420746865206f776e65720060448201526064016101d6565b600082815260026020526040808220805473ffffffffffffffffffffffffffffffffffffffff1916600160a060020a0387811691821790925591518593918516917f8c5be1e5ebec7d5bd14f71427d1e84f3dd0314c0f7b2291e5b200ac8c7c3b92591a4505050565b6102ad3382610465565b6102b657600080fd5b6102c18383836104ee565b505050565b60006102d18361041e565b82106103225760405160e560020a62461bcd02815260206004820152601c60248201527f6f776e657220696e646578206973206f7574206f6620626f756e64730000000060448201526064016101d6565b600160a060020a038316600090815260056020526040902080548390811061034c5761034c61078b565b9060005260206000200154905092915050565b600061036a60035490565b82106103bb5760405160e560020a62461bcd02815260206004820152601d60248201527f476c6f62616c20696e646578206973206f7574206f6620626f756e647300000060448201526064016101d6565b600382815481106103ce576103ce61078b565b90600052602060002001549050919050565b600081815260208190526040812054600160a060020a0316806104185760405160e560020a62461bcd0281526004016101d6906107ba565b92915050565b6000600160a060020a0382166104495760405160e560020a62461bcd0281526004016101d6906107ba565b50600160a060020a031660009081526001602052604090205490565b600081815260208190526040812054600160a060020a03166104cc5760405160e560020a62461bcd02815260206004820152601560248201527f546f6b656e20646f6573206e6f7420657869737473000000000000000000000060448201526064016101d6565b60006104d7836103e0565b600160a060020a0385811691161491505092915050565b600160a060020a03821661056c5760405160e560020a62461bcd028152602060048201526024808201527f4552433732313a205452414e5346455220544f20544845205a45524f2041444460448201527f524553530000000000000000000000000000000000000000000000000000000060648201526084016101d6565b82600160a060020a031661057f826103e0565b600160a060020a0316146105fe5760405160e560020a62461bcd02815260206004820152603160248201527f547279696e6720746f207472616e736665722074686520746f6b656e2061646460448201527f7265737320646f6573206e6f74206f776e00000000000000000000000000000060648201526084016101d6565b600160a060020a0383166000908152600160208190526040909120546106249190610846565b600160a060020a03808516600090815260016020819052604080832094909455918516815291909120546106579161085d565b600160a060020a03808416600081815260016020908152604080832095909555858252819052838120805473ffffffffffffffffffffffffffffffffffffffff1916831790559251849391928716917fddf252ad1be2c89b69c2b068fc378daa952ba7f163c4a11628f55a4df523b3ef91a4505050565b8035600160a060020a03811681146106e557600080fd5b919050565b600080604083850312156106fd57600080fd5b610706836106ce565b946020939093013593505050565b60008060006060848603121561072957600080fd5b610732846106ce565b9250610740602085016106ce565b9150604084013590509250925092565b60006020828403121561076257600080fd5b5035919050565b60006020828403121561077b57600080fd5b610784826106ce565b9392505050565b7f4e487b7100000000000000000000000000000000000000000000000000000000600052603260045260246000fd5b6020808252602b908201527f4552433732313a20416c657274202d2054686973206f776e657220686173207a60408201527f65726f2061646472657373000000000000000000000000000000000000000000606082015260800190565b7f4e487b7100000000000000000000000000000000000000000000000000000000600052601160045260246000fd5b60008282101561085857610858610817565b500390565b6000821982111561087057610870610817565b50019056fea2646970667358221220f2b07c56b38fba772070daa640afa89618e5e6a987597f29a40834903a46e50b64736f6c634300080b0033",
  "immutableReferences": {},
  "source": "// SPDX-License-Identifier: MIT\npragma solidity ^0.8.0;\n\nimport './ERC721.sol';\n\ncontract ERC721Enumerable is ERC721 {\n    // Places to keep the value if all tokens count\n    uint256[] private _allTokens;\n\n    // mapping from tokenId to position in _allTokens array\n    mapping(uint => uint) private _allTokensIndex;\n\n    // mapping of owner to list of all owner tokens ids\n    mapping(address => uint[]) private _ownedTokens; \n\n    // mapping from token Id to index of the owner tokens list\n    mapping(uint => uint) private _ownedTokensIndex;\n\n    // return sthe total supply of the allTokens array\n    function totalSupply() public view returns(uint256) {\n        return _allTokens.length;\n    }\n\n    // This mint function will overide the another mint function in ERC721.sol \n    function _mint(address to, uint256 tokenId) internal override(ERC721)  {\n        // super - key word will aloow us to grand the mint function fron ERC721.sol file \n        super._mint(to, tokenId);\n        _addTokensToAllTokenEnumeration(tokenId);\n        _addTokensToOwnerEmumeration(to, tokenId);\n    }\n\n    // a. add tokens to our total supply - to allTokens array, and set the position of the token indexes\n    function _addTokensToAllTokenEnumeration(uint tokenId) private {\n        // This will give us back the index where token ins stored in allTokens list\n        _allTokensIndex[tokenId] = _allTokens.length; \n        // This will push the recent added token to an _allTokens array \n        _allTokens.push(tokenId);\n    }  \n\n    // b. what are all the tokens does specific owner consists of\n    function _addTokensToOwnerEmumeration(address to, uint tokenId) private {\n        // a. add address and tokenId to the ownedTokens\n        _ownedTokens[to].push(tokenId);\n        // b. ownedTokensIndex tokenId set to address of ownedTokens position\n        _ownedTokensIndex[tokenId] = _ownedTokens[to].length;\n    }\n\n    // a. one that returns tokenByIndex\n    function tokenByIndex(uint index) public view returns (uint){\n        // make sure that the index is not out of bounds of total supply\n        require(index < totalSupply(), 'Global index is out of bounds');\n        return _allTokens[index];\n    }\n\n    // b. another on ethat returns tokenOfOwnerByIndex\n    function tokenOfOwnerByIndex(address owner, uint index) public view returns(uint) {\n        require(index < balanceOf(owner), 'owner index is out of bounds');\n        return _ownedTokens[owner][index];\n    }\n\n    \n    \n}",
  "sourcePath": "/Users/bhanuprakashkandregula/Documents/programming/nft-marketplace-starter-kit/src/contracts/ERC721Enumerable.sol",
  "compiler": {
    "name": "solc",
    "version": "0.8.11+commit.d7f03943.Emscripten.clang"
  },
  "schemaVersion": "3.4.4",
  "updatedAt": "2022-01-22T11:29:48.300Z",
  "devdoc": {
    "kind": "dev",
    "methods": {},
    "version": 1
  },
  "userdoc": {
    "kind": "user",
    "methods": {},
    "version": 1
  }
}