{
  "contractName": "ERC721Connector",
  "abi": [
    {
      "inputs": [
        {
          "internalType": "string",
          "name": "name",
          "type": "string"
        },
        {
          "internalType": "string",
          "name": "symbol",
          "type": "string"
        }
      ],
      "stateMutability": "nonpayable",
      "type": "constructor"
    },
    {
      "anonymous": false,
      "inputs": [
        {
          "indexed": true,
          "internalType": "address",
          "name": "_owner",
          "type": "address"
        },
        {
          "indexed": true,
          "internalType": "address",
          "name": "_approved",
          "type": "address"
        },
        {
          "indexed": true,
          "internalType": "uint256",
          "name": "_tokenId",
          "type": "uint256"
        }
      ],
      "name": "Approval",
      "type": "event"
    },
    {
      "anonymous": false,
      "inputs": [
        {
          "indexed": true,
          "internalType": "address",
          "name": "_from",
          "type": "address"
        },
        {
          "indexed": true,
          "internalType": "address",
          "name": "_to",
          "type": "address"
        },
        {
          "indexed": true,
          "internalType": "uint256",
          "name": "_tokenId",
          "type": "uint256"
        }
      ],
      "name": "Transfer",
      "type": "event"
    },
    {
      "inputs": [
        {
          "internalType": "bytes4",
          "name": "interfaceId",
          "type": "bytes4"
        }
      ],
      "name": "_registerInterface",
      "outputs": [],
      "stateMutability": "nonpayable",
      "type": "function"
    },
    {
      "inputs": [
        {
          "internalType": "address",
          "name": "_to",
          "type": "address"
        },
        {
          "internalType": "uint256",
          "name": "_tokenId",
          "type": "uint256"
        }
      ],
      "name": "approve",
      "outputs": [],
      "stateMutability": "nonpayable",
      "type": "function"
    },
    {
      "inputs": [
        {
          "internalType": "address",
          "name": "_owner",
          "type": "address"
        }
      ],
      "name": "balanceOf",
      "outputs": [
        {
          "internalType": "uint256",
          "name": "",
          "type": "uint256"
        }
      ],
      "stateMutability": "view",
      "type": "function"
    },
    {
      "inputs": [],
      "name": "name",
      "outputs": [
        {
          "internalType": "string",
          "name": "",
          "type": "string"
        }
      ],
      "stateMutability": "view",
      "type": "function"
    },
    {
      "inputs": [
        {
          "internalType": "uint256",
          "name": "_tokenId",
          "type": "uint256"
        }
      ],
      "name": "ownerOf",
      "outputs": [
        {
          "internalType": "address",
          "name": "",
          "type": "address"
        }
      ],
      "stateMutability": "view",
      "type": "function"
    },
    {
      "inputs": [
        {
          "internalType": "bytes4",
          "name": "interfaceId",
          "type": "bytes4"
        }
      ],
      "name": "supportsInterface",
      "outputs": [
        {
          "internalType": "bool",
          "name": "",
          "type": "bool"
        }
      ],
      "stateMutability": "view",
      "type": "function"
    },
    {
      "inputs": [],
      "name": "symbol",
      "outputs": [
        {
          "internalType": "string",
          "name": "",
          "type": "string"
        }
      ],
      "stateMutability": "view",
      "type": "function"
    },
    {
      "inputs": [
        {
          "internalType": "uint256",
          "name": "index",
          "type": "uint256"
        }
      ],
      "name": "tokenByIndex",
      "outputs": [
        {
          "internalType": "uint256",
          "name": "",
          "type": "uint256"
        }
      ],
      "stateMutability": "view",
      "type": "function"
    },
    {
      "inputs": [
        {
          "internalType": "address",
          "name": "owner",
          "type": "address"
        },
        {
          "internalType": "uint256",
          "name": "index",
          "type": "uint256"
        }
      ],
      "name": "tokenOfOwnerByIndex",
      "outputs": [
        {
          "internalType": "uint256",
          "name": "",
          "type": "uint256"
        }
      ],
      "stateMutability": "view",
      "type": "function"
    },
    {
      "inputs": [],
      "name": "totalSupply",
      "outputs": [
        {
          "internalType": "uint256",
          "name": "",
          "type": "uint256"
        }
      ],
      "stateMutability": "view",
      "type": "function"
    },
    {
      "inputs": [
        {
          "internalType": "address",
          "name": "_from",
          "type": "address"
        },
        {
          "internalType": "address",
          "name": "_to",
          "type": "address"
        },
        {
          "internalType": "uint256",
          "name": "_tokenId",
          "type": "uint256"
        }
      ],
      "name": "transferFrom",
      "outputs": [],
      "stateMutability": "nonpayable",
      "type": "function"
    }
  ],
  "bytecode": "0x60806040523480156200001157600080fd5b5060405162000f7938038062000f79833981016040819052620000349162000398565b81816200006a7f75e79be6cc7b0fa1c9ef93c49173e275135de3af55610b234fd35ad9f20df3816401000000006200013e810204565b6200009e7f6c5b7360b116f8fd1d2a1ccb905de5c6a9e91e31b88b8db3cd997e184f357e9f6401000000006200013e810204565b8151620000b39060019060208501906200020c565b508051620000c99060029060208401906200020c565b506200010291507f86d85597e207351a6b62a46a8b3ad763589db208076d3952eb6054f16b4447a090506401000000006200013e810204565b620001367f2aa3f4710f58b303977da296b62cadae054c8971d883298d8ed6c6c0565c13c16401000000006200013e810204565b505062000458565b7fffffffff000000000000000000000000000000000000000000000000000000008082161415620001cf576040517f08c379a000000000000000000000000000000000000000000000000000000000815260206004820152601960248201527f4552433136353a20696e76616c696420696e7465726661636500000000000000604482015260640160405180910390fd5b7fffffffff00000000000000000000000000000000000000000000000000000000166000908152602081905260409020805460ff19166001179055565b8280546200021a9062000402565b90600052602060002090601f0160209004810192826200023e576000855562000289565b82601f106200025957805160ff191683800117855562000289565b8280016001018555821562000289579182015b82811115620002895782518255916020019190600101906200026c565b50620002979291506200029b565b5090565b5b808211156200029757600081556001016200029c565b7f4e487b7100000000000000000000000000000000000000000000000000000000600052604160045260246000fd5b600082601f830112620002f357600080fd5b81516001604060020a0380821115620003105762000310620002b2565b604051601f8301601f19908116603f011681019082821181831017156200033b576200033b620002b2565b816040528381526020925086838588010111156200035857600080fd5b600091505b838210156200037c57858201830151818301840152908201906200035d565b838211156200038e5760008385830101525b9695505050505050565b60008060408385031215620003ac57600080fd5b82516001604060020a0380821115620003c457600080fd5b620003d286838701620002e1565b93506020850151915080821115620003e957600080fd5b50620003f885828601620002e1565b9150509250929050565b6002810460018216806200041757607f821691505b6020821081141562000452577f4e487b7100000000000000000000000000000000000000000000000000000000600052602260045260246000fd5b50919050565b610b1180620004686000396000f3fe608060405234801561001057600080fd5b50600436106100c6576000357c01000000000000000000000000000000000000000000000000000000009004806323b872dd1161008e57806323b872dd1461015c5780632f745c591461016f5780634f6ccce7146101825780636352211e1461019557806370a08231146101c057806395d89b41146101d357600080fd5b806301ffc9a7146100cb578063068417d91461010d57806306fdde0314610122578063095ea7b31461013757806318160ddd1461014a575b600080fd5b6100f86100d9366004610861565b600160e060020a03191660009081526020819052604090205460ff1690565b60405190151581526020015b60405180910390f35b61012061011b366004610861565b6101db565b005b61012a610262565b6040516101049190610892565b610120610145366004610903565b6102f4565b6006545b604051908152602001610104565b61012061016a36600461092d565b61042a565b61014e61017d366004610903565b61044d565b61014e610190366004610969565b6104e6565b6101a86101a3366004610969565b610567565b604051600160a060020a039091168152602001610104565b61014e6101ce366004610982565b6105a5565b61012a6105ec565b600160e060020a0319808216141561023d5760405160e560020a62461bcd02815260206004820152601960248201527f4552433136353a20696e76616c696420696e746572666163650000000000000060448201526064015b60405180910390fd5b600160e060020a0319166000908152602081905260409020805460ff19166001179055565b6060600180546102719061099d565b80601f016020809104026020016040519081016040528092919081815260200182805461029d9061099d565b80156102ea5780601f106102bf576101008083540402835291602001916102ea565b820191906000526020600020905b8154815290600101906020018083116102cd57829003601f168201915b5050505050905090565b60006102ff82610567565b905080600160a060020a031683600160a060020a031614156103665760405160e560020a62461bcd02815260206004820181905260248201527f4572726f723a20617070726f76616c20746f2063757272656e74206f776e65726044820152606401610234565b33600160a060020a038216146103c15760405160e560020a62461bcd02815260206004820152601f60248201527f43757272656e742063616c6c6572206973206e6f7420746865206f776e6572006044820152606401610234565b600082815260056020526040808220805473ffffffffffffffffffffffffffffffffffffffff1916600160a060020a0387811691821790925591518593918516917f8c5be1e5ebec7d5bd14f71427d1e84f3dd0314c0f7b2291e5b200ac8c7c3b92591a4505050565b61043433826105fb565b61043d57600080fd5b610448838383610684565b505050565b6000610458836105a5565b82106104a95760405160e560020a62461bcd02815260206004820152601c60248201527f6f776e657220696e646578206973206f7574206f6620626f756e6473000000006044820152606401610234565b600160a060020a03831660009081526008602052604090208054839081106104d3576104d36109f1565b9060005260206000200154905092915050565b60006104f160065490565b82106105425760405160e560020a62461bcd02815260206004820152601d60248201527f476c6f62616c20696e646578206973206f7574206f6620626f756e64730000006044820152606401610234565b60068281548110610555576105556109f1565b90600052602060002001549050919050565b600081815260036020526040812054600160a060020a03168061059f5760405160e560020a62461bcd02815260040161023490610a20565b92915050565b6000600160a060020a0382166105d05760405160e560020a62461bcd02815260040161023490610a20565b50600160a060020a031660009081526004602052604090205490565b6060600280546102719061099d565b600081815260036020526040812054600160a060020a03166106625760405160e560020a62461bcd02815260206004820152601560248201527f546f6b656e20646f6573206e6f742065786973747300000000000000000000006044820152606401610234565b600061066d83610567565b600160a060020a0385811691161491505092915050565b600160a060020a0382166107025760405160e560020a62461bcd028152602060048201526024808201527f4552433732313a205452414e5346455220544f20544845205a45524f2041444460448201527f52455353000000000000000000000000000000000000000000000000000000006064820152608401610234565b82600160a060020a031661071582610567565b600160a060020a0316146107945760405160e560020a62461bcd02815260206004820152603160248201527f547279696e6720746f207472616e736665722074686520746f6b656e2061646460448201527f7265737320646f6573206e6f74206f776e0000000000000000000000000000006064820152608401610234565b600160a060020a0383166000908152600460205260409020546107b990600190610aac565b600160a060020a0380851660009081526004602052604080822093909355908416815220546107e9906001610ac3565b600160a060020a0380841660008181526004602090815260408083209590955585825260039052838120805473ffffffffffffffffffffffffffffffffffffffff1916831790559251849391928716917fddf252ad1be2c89b69c2b068fc378daa952ba7f163c4a11628f55a4df523b3ef91a4505050565b60006020828403121561087357600080fd5b8135600160e060020a03198116811461088b57600080fd5b9392505050565b600060208083528351808285015260005b818110156108bf578581018301518582016040015282016108a3565b818111156108d1576000604083870101525b50601f01601f1916929092016040019392505050565b8035600160a060020a03811681146108fe57600080fd5b919050565b6000806040838503121561091657600080fd5b61091f836108e7565b946020939093013593505050565b60008060006060848603121561094257600080fd5b61094b846108e7565b9250610959602085016108e7565b9150604084013590509250925092565b60006020828403121561097b57600080fd5b5035919050565b60006020828403121561099457600080fd5b61088b826108e7565b6002810460018216806109b157607f821691505b602082108114156109eb577f4e487b7100000000000000000000000000000000000000000000000000000000600052602260045260246000fd5b50919050565b7f4e487b7100000000000000000000000000000000000000000000000000000000600052603260045260246000fd5b6020808252602b908201527f4552433732313a20416c657274202d2054686973206f776e657220686173207a60408201527f65726f2061646472657373000000000000000000000000000000000000000000606082015260800190565b7f4e487b7100000000000000000000000000000000000000000000000000000000600052601160045260246000fd5b600082821015610abe57610abe610a7d565b500390565b60008219821115610ad657610ad6610a7d565b50019056fea264697066735822122037aa1a9becda1295d074298aae564e56c365b868e244f92a5db7fdcd68fbc54964736f6c634300080b0033",
  "immutableReferences": {},
  "source": "// SPDX-License-Identifier: MIT\npragma solidity ^0.8.0;\n\nimport './ERC721Metadata.sol';\nimport './ERC721Enumerable.sol';\n\ncontract ERC721Connector is ERC721Metadata, ERC721Enumerable {\n    constructor(string memory name, string memory symbol) ERC721Metadata(name, symbol) {\n        \n    }\n}",
  "sourcePath": "/Users/bhanuprakashkandregula/Documents/programming/nft-marketplace-starter-kit/src/contracts/ERC721Connector.sol",
  "compiler": {
    "name": "solc",
    "version": "0.8.11+commit.d7f03943.Emscripten.clang"
  },
  "schemaVersion": "3.4.4",
  "updatedAt": "2022-01-22T23:44:07.632Z",
  "devdoc": {
    "kind": "dev",
    "methods": {},
    "version": 1
  },
  "userdoc": {
    "kind": "user",
    "methods": {},
    "version": 1
  }
}