{
  "contractName": "ERC721",
  "abi": [
    {
      "inputs": [],
      "stateMutability": "nonpayable",
      "type": "constructor"
    },
    {
      "anonymous": false,
      "inputs": [
        {
          "indexed": true,
          "internalType": "address",
          "name": "owner",
          "type": "address"
        },
        {
          "indexed": true,
          "internalType": "address",
          "name": "approved",
          "type": "address"
        },
        {
          "indexed": true,
          "internalType": "uint256",
          "name": "tokenId",
          "type": "uint256"
        }
      ],
      "name": "Approval",
      "type": "event"
    },
    {
      "anonymous": false,
      "inputs": [
        {
          "indexed": true,
          "internalType": "address",
          "name": "from",
          "type": "address"
        },
        {
          "indexed": true,
          "internalType": "address",
          "name": "to",
          "type": "address"
        },
        {
          "indexed": true,
          "internalType": "uint256",
          "name": "tokenId",
          "type": "uint256"
        }
      ],
      "name": "Transfer",
      "type": "event"
    },
    {
      "inputs": [
        {
          "internalType": "address",
          "name": "_owner",
          "type": "address"
        }
      ],
      "name": "balanceOf",
      "outputs": [
        {
          "internalType": "uint256",
          "name": "",
          "type": "uint256"
        }
      ],
      "stateMutability": "view",
      "type": "function"
    },
    {
      "inputs": [
        {
          "internalType": "uint256",
          "name": "_tokenId",
          "type": "uint256"
        }
      ],
      "name": "ownerOf",
      "outputs": [
        {
          "internalType": "address",
          "name": "",
          "type": "address"
        }
      ],
      "stateMutability": "view",
      "type": "function"
    },
    {
      "inputs": [
        {
          "internalType": "address",
          "name": "_from",
          "type": "address"
        },
        {
          "internalType": "address",
          "name": "_to",
          "type": "address"
        },
        {
          "internalType": "uint256",
          "name": "_tokenId",
          "type": "uint256"
        }
      ],
      "name": "transferFrom",
      "outputs": [],
      "stateMutability": "nonpayable",
      "type": "function"
    },
    {
      "inputs": [
        {
          "internalType": "address",
          "name": "_to",
          "type": "address"
        },
        {
          "internalType": "uint256",
          "name": "_tokenId",
          "type": "uint256"
        }
      ],
      "name": "approve",
      "outputs": [],
      "stateMutability": "nonpayable",
      "type": "function"
    }
  ],
  "bytecode": "0x608060405234801561001057600080fd5b50610706806100206000396000f3fe608060405234801561001057600080fd5b5060043610610068577c01000000000000000000000000000000000000000000000000000000006000350463095ea7b3811461006d57806323b872dd146100825780636352211e1461009557806370a08231146100c5575b600080fd5b61008061007b366004610574565b6100e6565b005b61008061009036600461059e565b610247565b6100a86100a33660046105da565b61026a565b604051600160a060020a0390911681526020015b60405180910390f35b6100d86100d33660046105f3565b6102a8565b6040519081526020016100bc565b60006100f18261026a565b905080600160a060020a031683600160a060020a031614156101835760405160e560020a62461bcd02815260206004820152602260248201527f4572726f6f723a20617070726f76616c6b20746f2063757272656e74206f776e60448201527f657200000000000000000000000000000000000000000000000000000000000060648201526084015b60405180910390fd5b33600160a060020a038216146101de5760405160e560020a62461bcd02815260206004820152601f60248201527f43757272656e742063616c6c6572206973206e6f7420746865206f776e657200604482015260640161017a565b600082815260026020526040808220805473ffffffffffffffffffffffffffffffffffffffff1916600160a060020a0387811691821790925591518593918516917f8c5be1e5ebec7d5bd14f71427d1e84f3dd0314c0f7b2291e5b200ac8c7c3b92591a4505050565b61025133826102ef565b61025a57600080fd5b610265838383610378565b505050565b600081815260208190526040812054600160a060020a0316806102a25760405160e560020a62461bcd02815260040161017a90610615565b92915050565b6000600160a060020a0382166102d35760405160e560020a62461bcd02815260040161017a90610615565b50600160a060020a031660009081526001602052604090205490565b600081815260208190526040812054600160a060020a03166103565760405160e560020a62461bcd02815260206004820152601560248201527f546f6b656e20646f6573206e6f74206578697374730000000000000000000000604482015260640161017a565b60006103618361026a565b600160a060020a0385811691161491505092915050565b600160a060020a0382166103f65760405160e560020a62461bcd028152602060048201526024808201527f4552433732313a205452414e5346455220544f20544845205a45524f2041444460448201527f5245535300000000000000000000000000000000000000000000000000000000606482015260840161017a565b82600160a060020a03166104098261026a565b600160a060020a0316146104885760405160e560020a62461bcd02815260206004820152603160248201527f547279696e6720746f207472616e736665722074686520746f6b656e2061646460448201527f7265737320646f6573206e6f74206f776e000000000000000000000000000000606482015260840161017a565b600160a060020a0383166000908152600160208190526040909120546104ae91906106a1565b600160a060020a03808516600090815260016020819052604080832094909455918516815291909120546104e1916106b8565b600160a060020a03808416600081815260016020908152604080832095909555858252819052838120805473ffffffffffffffffffffffffffffffffffffffff1916831790559251849391928716917fddf252ad1be2c89b69c2b068fc378daa952ba7f163c4a11628f55a4df523b3ef91a4505050565b8035600160a060020a038116811461056f57600080fd5b919050565b6000806040838503121561058757600080fd5b61059083610558565b946020939093013593505050565b6000806000606084860312156105b357600080fd5b6105bc84610558565b92506105ca60208501610558565b9150604084013590509250925092565b6000602082840312156105ec57600080fd5b5035919050565b60006020828403121561060557600080fd5b61060e82610558565b9392505050565b6020808252602b908201527f4552433732313a20416c657274202d2054686973206f776e657220686173207a60408201527f65726f2061646472657373000000000000000000000000000000000000000000606082015260800190565b7f4e487b7100000000000000000000000000000000000000000000000000000000600052601160045260246000fd5b6000828210156106b3576106b3610672565b500390565b600082198211156106cb576106cb610672565b50019056fea26469706673582212204a582307497777729bb562ac4869cc92c873052de9bb2b024aedd24df37366b164736f6c634300080b0033",
  "immutableReferences": {},
  "source": "// SPDX-License-Identifier: MIT\npragma solidity ^0.8.0;\n\n// BUILDING OUT MINTING FUNCTION\n// a. NFT to point to an address\n// b. keep track of the token ids\n// c. keep track of owner addresses to token  ids \n// d. keep track of how many addresses each owner has\n// e. create an event that emits transfer log - contract address where it is being minted to and its id\n\ncontract ERC721 {\n\n    // Mapping in solodity creates a table, with key value pairs\n    // Mapping token ID to the owner\n    mapping(uint256 => address) private _tokenOwner;\n\n    // Mapping from owner to number of owner tokens\n    mapping(address => uint256) private _ownedTokensCount;\n\n    function _exists(uint256 tokenId) internal view returns(bool){\n        // setting the address of the NFT owner to check the mapping of the address from tokenOwner at the tokenId\n        address owner = _tokenOwner[tokenId];\n        // return truthiness the address is not zero\n        return owner != address(0);\n    }\n\n    function _mint(address to, uint256 tokenId) internal virtual {\n        // requires that the address isn't zero\n        require(to != address(0), 'ERC721: minting to the zero address'); // address(0) is address of nobody\n        // requires that the token does not already exists\n        require(!_exists(tokenId), 'ERC721: token already minted');\n        // we are adding a new address with a token id for minting\n        _tokenOwner[tokenId] = to;\n        // we are increasing the numbers to tokens owner owned (or)\n        // keeping track of each address that is minting and adding one\n        _ownedTokensCount[to] = _ownedTokensCount[to] + 1;\n\n        emit Transfer(address(0), to, tokenId);\n    }\n\n    // count all the NFT's owner has in his account\n    function balanceOf(address _owner) public view returns(uint256){\n         // requires that the address isn't zero\n        require(_owner != address(0), 'ERC721: Alert - This owner has zero address');\n        // returns the total number of tokens specific owner has\n        return _ownedTokensCount[_owner];\n    }\n\n    // Find the owner of an NFT\n    function ownerOf(uint256 _tokenId) public view returns(address){\n        address _owner = _tokenOwner[_tokenId];\n        // requires that the address isn't zero\n        require(_owner != address(0), 'ERC721: Alert - This owner has zero address');\n        // This returns the owner address of whom the token belongs\n        return _owner;\n    }\n\n     // mapping from token id to approved addresses\n    mapping(uint => address) private _tokenApprovals;\n\n    // transferFunction\n    function _transferFrom(address _from, address _to, uint _tokenId) internal {\n        // d. require that the address receiving the token is not a zero address\n        require(_to != address(0), 'ERC721: TRANSFER TO THE ZERO ADDRESS');\n        // e. require the address transferring the token actually owns the token\n        require(ownerOf(_tokenId) == _from, 'Trying to transfer the token address does not own');\n        // b. update the balance of the address _from token\n        _ownedTokensCount[_from] = _ownedTokensCount[_from] - 1;\n        // c. update the balance of the address _to\n        _ownedTokensCount[_to] = _ownedTokensCount[_to] + 1;\n        // a. add the token id to the address receiving the token\n        _tokenOwner[_tokenId] = _to;\n        \n        emit Transfer(_from, _to, _tokenId);\n    }\n\n    function transferFrom(address _from, address _to, uint _tokenId) public {\n        // there is additional function shas to be writtne to approve, but for now; its just owner\n        // we can get the additional notes from openzepplin library\n        // node_modules/openzepplin/token/ERC721/\n        require(isApprovedOrOwner(msg.sender, _tokenId));\n        _transferFrom(_from, _to, _tokenId);\n    }\n\n    function approve(address _to, uint _tokenId) public {\n        // a. require the person approving is the owner\n        // b. approve an address to a token (tokenId)\n        // c. require that we can't approve sending tokens to owner to the owner\n        // d. update the map of the approval addresses\n\n        address owner = ownerOf(_tokenId);\n        require(_to != owner, 'Erroor: approvalk to current owner');\n        require(msg.sender == owner, 'Current caller is not the owner');\n        _tokenApprovals[_tokenId] = _to; \n\n        emit Approval(owner, _to, _tokenId);\n    }\n\n    function isApprovedOrOwner(address spender, uint _tokenId) internal view returns(bool){\n        require(_exists(_tokenId), 'Token does not exists');\n        address owner = ownerOf(_tokenId);\n        return(spender == owner);\n    }\n\n    event Transfer(\n        address indexed from, \n        address indexed to, \n        uint256 indexed tokenId);\n\n    event Approval(\n        address indexed owner,\n        address indexed approved,\n        uint indexed tokenId\n    );\n\n    constructor(){\n\n    }\n}",
  "sourcePath": "/Users/bhanuprakashkandregula/Documents/programming/nft-marketplace-starter-kit/src/contracts/ERC721.sol",
  "compiler": {
    "name": "solc",
    "version": "0.8.11+commit.d7f03943.Emscripten.clang"
  },
  "schemaVersion": "3.4.4",
  "updatedAt": "2022-01-22T11:29:48.282Z",
  "devdoc": {
    "kind": "dev",
    "methods": {},
    "version": 1
  },
  "userdoc": {
    "kind": "user",
    "methods": {},
    "version": 1
  }
}