{
  "contractName": "ERC721",
  "abi": [
    {
      "inputs": [],
      "stateMutability": "nonpayable",
      "type": "constructor"
    },
    {
      "anonymous": false,
      "inputs": [
        {
          "indexed": true,
          "internalType": "address",
          "name": "from",
          "type": "address"
        },
        {
          "indexed": true,
          "internalType": "address",
          "name": "to",
          "type": "address"
        },
        {
          "indexed": true,
          "internalType": "uint256",
          "name": "tokenId",
          "type": "uint256"
        }
      ],
      "name": "Transfer",
      "type": "event"
    },
    {
      "inputs": [
        {
          "internalType": "address",
          "name": "_owner",
          "type": "address"
        }
      ],
      "name": "balanceOf",
      "outputs": [
        {
          "internalType": "uint256",
          "name": "",
          "type": "uint256"
        }
      ],
      "stateMutability": "view",
      "type": "function"
    },
    {
      "inputs": [
        {
          "internalType": "uint256",
          "name": "_tokenId",
          "type": "uint256"
        }
      ],
      "name": "ownerOf",
      "outputs": [
        {
          "internalType": "address",
          "name": "",
          "type": "address"
        }
      ],
      "stateMutability": "view",
      "type": "function"
    },
    {
      "inputs": [
        {
          "internalType": "address",
          "name": "_from",
          "type": "address"
        },
        {
          "internalType": "address",
          "name": "_to",
          "type": "address"
        },
        {
          "internalType": "uint256",
          "name": "_tokenId",
          "type": "uint256"
        }
      ],
      "name": "transferFrom",
      "outputs": [],
      "stateMutability": "nonpayable",
      "type": "function"
    }
  ],
  "bytecode": "0x608060405234801561001057600080fd5b506104ca806100206000396000f3fe608060405234801561001057600080fd5b506004361061005d577c0100000000000000000000000000000000000000000000000000000000600035046323b872dd81146100625780636352211e1461007757806370a08231146100a7575b600080fd5b610075610070366004610362565b6100c8565b005b61008a61008536600461039e565b6100d8565b604051600160a060020a0390911681526020015b60405180910390f35b6100ba6100b53660046103b7565b61011f565b60405190815260200161009e565b6100d3838383610166565b505050565b600081815260208190526040812054600160a060020a0316806101195760405160e560020a62461bcd028152600401610110906103d9565b60405180910390fd5b92915050565b6000600160a060020a03821661014a5760405160e560020a62461bcd028152600401610110906103d9565b50600160a060020a031660009081526001602052604090205490565b600160a060020a0382166101e45760405160e560020a62461bcd028152602060048201526024808201527f4552433732313a205452414e5346455220544f20544845205a45524f2041444460448201527f52455353000000000000000000000000000000000000000000000000000000006064820152608401610110565b82600160a060020a03166101f7826100d8565b600160a060020a0316146102765760405160e560020a62461bcd02815260206004820152603160248201527f547279696e6720746f207472616e736665722074686520746f6b656e2061646460448201527f7265737320646f6573206e6f74206f776e0000000000000000000000000000006064820152608401610110565b600160a060020a03831660009081526001602081905260409091205461029c9190610465565b600160a060020a03808516600090815260016020819052604080832094909455918516815291909120546102cf9161047c565b600160a060020a03808416600081815260016020908152604080832095909555858252819052838120805473ffffffffffffffffffffffffffffffffffffffff1916831790559251849391928716917fddf252ad1be2c89b69c2b068fc378daa952ba7f163c4a11628f55a4df523b3ef91a4505050565b8035600160a060020a038116811461035d57600080fd5b919050565b60008060006060848603121561037757600080fd5b61038084610346565b925061038e60208501610346565b9150604084013590509250925092565b6000602082840312156103b057600080fd5b5035919050565b6000602082840312156103c957600080fd5b6103d282610346565b9392505050565b6020808252602b908201527f4552433732313a20416c657274202d2054686973206f776e657220686173207a60408201527f65726f2061646472657373000000000000000000000000000000000000000000606082015260800190565b7f4e487b7100000000000000000000000000000000000000000000000000000000600052601160045260246000fd5b60008282101561047757610477610436565b500390565b6000821982111561048f5761048f610436565b50019056fea26469706673582212206dd9120870d915742c6fc691647339a72499b0565d13405dff177bd89856d3b864736f6c634300080b0033",
  "immutableReferences": {},
  "source": "// SPDX-License-Identifier: MIT\npragma solidity ^0.8.0;\n\n// BUILDING OUT MINTING FUNCTION\n// a. NFT to point to an address\n// b. keep track of the token ids\n// c. keep track of owner addresses to token  ids \n// d. keep track of how many addresses each owner has\n// e. create an event that emits transfer log - contract address where it is being minted to and its id\n\ncontract ERC721 {\n\n    // Mapping in solodity creates a table, with key value pairs\n    // Mapping token ID to the owner\n    mapping(uint256 => address) private _tokenOwner;\n\n    // Mapping from owner to number of owner tokens\n    mapping(address => uint256) private _ownedTokensCount;\n\n    function _exists(uint256 tokenId) internal view returns(bool){\n        // setting the address of the NFT owner to check the mapping of the address from tokenOwner at the tokenId\n        address owner = _tokenOwner[tokenId];\n        // return truthiness the address is not zero\n        return owner != address(0);\n    }\n\n    function _mint(address to, uint256 tokenId) internal virtual {\n        // requires that the address isn't zero\n        require(to != address(0), 'ERC721: minting to the zero address'); // address(0) is address of nobody\n        // requires that the token does not already exists\n        require(!_exists(tokenId), 'ERC721: token already minted');\n        // we are adding a new address with a token id for minting\n        _tokenOwner[tokenId] = to;\n        // we are increasing the numbers to tokens owner owned (or)\n        // keeping track of each address that is minting and adding one\n        _ownedTokensCount[to] = _ownedTokensCount[to] + 1;\n\n        emit Transfer(address(0), to, tokenId);\n    }\n\n    // count all the NFT's owner has in his account\n    function balanceOf(address _owner) public view returns(uint256){\n         // requires that the address isn't zero\n        require(_owner != address(0), 'ERC721: Alert - This owner has zero address');\n        // returns the total number of tokens specific owner has\n        return _ownedTokensCount[_owner];\n    }\n\n    // Find the owner of an NFT\n    function ownerOf(uint256 _tokenId) public view returns(address){\n        address _owner = _tokenOwner[_tokenId];\n        // requires that the address isn't zero\n        require(_owner != address(0), 'ERC721: Alert - This owner has zero address');\n        // This returns the owner address of whom the token belongs\n        return _owner;\n    }\n\n     // mapping from token id to approved addresses\n    mapping(uint => address) private _tokenApprovals;\n\n    // transferFunction\n    function _transferFrom(address _from, address _to, uint _tokenId) internal {\n        // d. require that the address receiving the token is not a zero address\n        require(_to != address(0), 'ERC721: TRANSFER TO THE ZERO ADDRESS');\n        // e. require the address transferring the token actually owns the token\n        require(ownerOf(_tokenId) == _from, 'Trying to transfer the token address does not own');\n        // b. update the balance of the address _from token\n        _ownedTokensCount[_from] = _ownedTokensCount[_from] - 1;\n        // c. update the balance of the address _to\n        _ownedTokensCount[_to] = _ownedTokensCount[_to] + 1;\n        // a. add the token id to the address receiving the token\n        _tokenOwner[_tokenId] = _to;\n        \n        emit Transfer(_from, _to, _tokenId);\n    }\n\n    function transferFrom(address _from, address _to, uint _tokenId) public {\n        _transferFrom(_from, _to, _tokenId);\n    }\n\n    event Transfer(\n        address indexed from, \n        address indexed to, \n        uint256 indexed tokenId);\n\n    constructor(){\n\n    }\n}",
  "sourcePath": "/Users/bhanuprakashkandregula/Documents/programming/nft-marketplace-starter-kit/src/contracts/ERC721.sol",
  "compiler": {
    "name": "solc",
    "version": "0.8.11+commit.d7f03943.Emscripten.clang"
  },
  "schemaVersion": "3.4.4",
  "updatedAt": "2022-01-22T10:54:38.330Z",
  "devdoc": {
    "kind": "dev",
    "methods": {},
    "version": 1
  },
  "userdoc": {
    "kind": "user",
    "methods": {},
    "version": 1
  }
}