{
  "contractName": "ERC721",
  "abi": [
    {
      "inputs": [],
      "stateMutability": "nonpayable",
      "type": "constructor"
    },
    {
      "anonymous": false,
      "inputs": [
        {
          "indexed": true,
          "internalType": "address",
          "name": "_owner",
          "type": "address"
        },
        {
          "indexed": true,
          "internalType": "address",
          "name": "_approved",
          "type": "address"
        },
        {
          "indexed": true,
          "internalType": "uint256",
          "name": "_tokenId",
          "type": "uint256"
        }
      ],
      "name": "Approval",
      "type": "event"
    },
    {
      "anonymous": false,
      "inputs": [
        {
          "indexed": true,
          "internalType": "address",
          "name": "_from",
          "type": "address"
        },
        {
          "indexed": true,
          "internalType": "address",
          "name": "_to",
          "type": "address"
        },
        {
          "indexed": true,
          "internalType": "uint256",
          "name": "_tokenId",
          "type": "uint256"
        }
      ],
      "name": "Transfer",
      "type": "event"
    },
    {
      "inputs": [
        {
          "internalType": "bytes4",
          "name": "interfaceId",
          "type": "bytes4"
        }
      ],
      "name": "_registerInterface",
      "outputs": [],
      "stateMutability": "nonpayable",
      "type": "function"
    },
    {
      "inputs": [
        {
          "internalType": "bytes4",
          "name": "interfaceId",
          "type": "bytes4"
        }
      ],
      "name": "supportsInterface",
      "outputs": [
        {
          "internalType": "bool",
          "name": "",
          "type": "bool"
        }
      ],
      "stateMutability": "view",
      "type": "function"
    },
    {
      "inputs": [
        {
          "internalType": "address",
          "name": "_owner",
          "type": "address"
        }
      ],
      "name": "balanceOf",
      "outputs": [
        {
          "internalType": "uint256",
          "name": "",
          "type": "uint256"
        }
      ],
      "stateMutability": "view",
      "type": "function"
    },
    {
      "inputs": [
        {
          "internalType": "uint256",
          "name": "_tokenId",
          "type": "uint256"
        }
      ],
      "name": "ownerOf",
      "outputs": [
        {
          "internalType": "address",
          "name": "",
          "type": "address"
        }
      ],
      "stateMutability": "view",
      "type": "function"
    },
    {
      "inputs": [
        {
          "internalType": "address",
          "name": "_from",
          "type": "address"
        },
        {
          "internalType": "address",
          "name": "_to",
          "type": "address"
        },
        {
          "internalType": "uint256",
          "name": "_tokenId",
          "type": "uint256"
        }
      ],
      "name": "transferFrom",
      "outputs": [],
      "stateMutability": "nonpayable",
      "type": "function"
    },
    {
      "inputs": [
        {
          "internalType": "address",
          "name": "_to",
          "type": "address"
        },
        {
          "internalType": "uint256",
          "name": "_tokenId",
          "type": "uint256"
        }
      ],
      "name": "approve",
      "outputs": [],
      "stateMutability": "nonpayable",
      "type": "function"
    }
  ],
  "bytecode": "0x608060405234801561001057600080fd5b506100437f75e79be6cc7b0fa1c9ef93c49173e275135de3af55610b234fd35ad9f20df38164010000000061007a810204565b6100757f86d85597e207351a6b62a46a8b3ad763589db208076d3952eb6054f16b4447a064010000000061007a810204565b610147565b7fffffffff00000000000000000000000000000000000000000000000000000000808216141561010a576040517f08c379a000000000000000000000000000000000000000000000000000000000815260206004820152601960248201527f4552433136353a20696e76616c696420696e7465726661636500000000000000604482015260640160405180910390fd5b7fffffffff00000000000000000000000000000000000000000000000000000000166000908152602081905260409020805460ff19166001179055565b6107ef806101566000396000f3fe608060405234801561001057600080fd5b506004361061007e577c0100000000000000000000000000000000000000000000000000000000600035046301ffc9a78114610083578063068417d9146100c5578063095ea7b3146100da57806323b872dd146100ed5780636352211e1461010057806370a082311461012b575b600080fd5b6100b0610091366004610617565b600160e060020a03191660009081526020819052604090205460ff1690565b60405190151581526020015b60405180910390f35b6100d86100d3366004610617565b61014c565b005b6100d86100e8366004610664565b6101d3565b6100d86100fb36600461068e565b610309565b61011361010e3660046106ca565b61032c565b604051600160a060020a0390911681526020016100bc565b61013e6101393660046106e3565b61036a565b6040519081526020016100bc565b600160e060020a031980821614156101ae5760405160e560020a62461bcd02815260206004820152601960248201527f4552433136353a20696e76616c696420696e746572666163650000000000000060448201526064015b60405180910390fd5b600160e060020a0319166000908152602081905260409020805460ff19166001179055565b60006101de8261032c565b905080600160a060020a031683600160a060020a031614156102455760405160e560020a62461bcd02815260206004820181905260248201527f4572726f723a20617070726f76616c20746f2063757272656e74206f776e657260448201526064016101a5565b33600160a060020a038216146102a05760405160e560020a62461bcd02815260206004820152601f60248201527f43757272656e742063616c6c6572206973206e6f7420746865206f776e65720060448201526064016101a5565b600082815260036020526040808220805473ffffffffffffffffffffffffffffffffffffffff1916600160a060020a0387811691821790925591518593918516917f8c5be1e5ebec7d5bd14f71427d1e84f3dd0314c0f7b2291e5b200ac8c7c3b92591a4505050565b61031333826103b1565b61031c57600080fd5b61032783838361043a565b505050565b600081815260016020526040812054600160a060020a0316806103645760405160e560020a62461bcd0281526004016101a5906106fe565b92915050565b6000600160a060020a0382166103955760405160e560020a62461bcd0281526004016101a5906106fe565b50600160a060020a031660009081526002602052604090205490565b600081815260016020526040812054600160a060020a03166104185760405160e560020a62461bcd02815260206004820152601560248201527f546f6b656e20646f6573206e6f7420657869737473000000000000000000000060448201526064016101a5565b60006104238361032c565b600160a060020a0385811691161491505092915050565b600160a060020a0382166104b85760405160e560020a62461bcd028152602060048201526024808201527f4552433732313a205452414e5346455220544f20544845205a45524f2041444460448201527f524553530000000000000000000000000000000000000000000000000000000060648201526084016101a5565b82600160a060020a03166104cb8261032c565b600160a060020a03161461054a5760405160e560020a62461bcd02815260206004820152603160248201527f547279696e6720746f207472616e736665722074686520746f6b656e2061646460448201527f7265737320646f6573206e6f74206f776e00000000000000000000000000000060648201526084016101a5565b600160a060020a03831660009081526002602052604090205461056f9060019061078a565b600160a060020a03808516600090815260026020526040808220939093559084168152205461059f9060016107a1565b600160a060020a0380841660008181526002602090815260408083209590955585825260019052838120805473ffffffffffffffffffffffffffffffffffffffff1916831790559251849391928716917fddf252ad1be2c89b69c2b068fc378daa952ba7f163c4a11628f55a4df523b3ef91a4505050565b60006020828403121561062957600080fd5b8135600160e060020a03198116811461064157600080fd5b9392505050565b8035600160a060020a038116811461065f57600080fd5b919050565b6000806040838503121561067757600080fd5b61068083610648565b946020939093013593505050565b6000806000606084860312156106a357600080fd5b6106ac84610648565b92506106ba60208501610648565b9150604084013590509250925092565b6000602082840312156106dc57600080fd5b5035919050565b6000602082840312156106f557600080fd5b61064182610648565b6020808252602b908201527f4552433732313a20416c657274202d2054686973206f776e657220686173207a60408201527f65726f2061646472657373000000000000000000000000000000000000000000606082015260800190565b7f4e487b7100000000000000000000000000000000000000000000000000000000600052601160045260246000fd5b60008282101561079c5761079c61075b565b500390565b600082198211156107b4576107b461075b565b50019056fea264697066735822122000a6b1d9fde3a3bc7f8bc2138f56b85b275c1da8fde1da6ece75ae4602379c1f64736f6c634300080b0033",
  "immutableReferences": {},
  "source": "// SPDX-License-Identifier: MIT\npragma solidity ^0.8.0;\n\nimport './ERC165.sol';\nimport './interfaces/IERC721.sol';\n\n// BUILDING OUT MINTING FUNCTION\n// a. NFT to point to an address\n// b. keep track of the token ids\n// c. keep track of owner addresses to token  ids \n// d. keep track of how many addresses each owner has\n// e. create an event that emits transfer log - contract address where it is being minted to and its id\n\n// This is ERC165 will also give access to interface IERC165 for ERC721\ncontract ERC721 is ERC165, IERC721  {\n\n    // Mapping in solodity creates a table, with key value pairs\n    // Mapping token ID to the owner\n    mapping(uint256 => address) private _tokenOwner;\n\n    // Mapping from owner to number of owner tokens\n    mapping(address => uint256) private _ownedTokensCount;\n\n    // Register the interface for the ERC721 so that it includes the folloing functions: \n    // Interface ERC721\n    // balanceOf()\n    // ownerOf()\n    // TransferFrom()\n    constructor(){\n        _registerInterface(bytes4(keccak256('balanceOf(bytes4)') ^\n        keccak256('ownerOf(bytes4)') ^\n        keccak256('transferfrom(bytes4)'))\n        );\n    }\n\n    function _exists(uint256 tokenId) internal view returns(bool){\n        // setting the address of the NFT owner to check the mapping of the address from tokenOwner at the tokenId\n        address owner = _tokenOwner[tokenId];\n        // return truthiness the address is not zero\n        return owner != address(0);\n    }\n\n    function _mint(address to, uint256 tokenId) internal virtual {\n        // requires that the address isn't zero\n        require(to != address(0), 'ERC721: minting to the zero address'); // address(0) is address of nobody\n        // requires that the token does not already exists\n        require(!_exists(tokenId), 'ERC721: token already minted');\n        // we are adding a new address with a token id for minting\n        _tokenOwner[tokenId] = to;\n        // we are increasing the numbers to tokens owner owned (or)\n        // keeping track of each address that is minting and adding one\n        _ownedTokensCount[to] = _ownedTokensCount[to] + 1;\n\n        emit Transfer(address(0), to, tokenId);\n    }\n\n    // count all the NFT's owner has in his account\n    function balanceOf(address _owner) public view returns(uint256){\n         // requires that the address isn't zero\n        require(_owner != address(0), 'ERC721: Alert - This owner has zero address');\n        // returns the total number of tokens specific owner has\n        return _ownedTokensCount[_owner];\n    }\n\n    // Find the owner of an NFT\n    function ownerOf(uint256 _tokenId) public view returns(address){\n        address _owner = _tokenOwner[_tokenId];\n        // requires that the address isn't zero\n        require(_owner != address(0), 'ERC721: Alert - This owner has zero address');\n        // This returns the owner address of whom the token belongs\n        return _owner;\n    }\n\n     // mapping from token id to approved addresses\n    mapping(uint => address) private _tokenApprovals;\n\n    // transferFunction\n    function _transferFrom(address _from, address _to, uint _tokenId) internal {\n        // d. require that the address receiving the token is not a zero address\n        require(_to != address(0), 'ERC721: TRANSFER TO THE ZERO ADDRESS');\n        // e. require the address transferring the token actually owns the token\n        require(ownerOf(_tokenId) == _from, 'Trying to transfer the token address does not own');\n        // b. update the balance of the address _from token\n        _ownedTokensCount[_from] = _ownedTokensCount[_from] - 1;\n        // c. update the balance of the address _to\n        _ownedTokensCount[_to] = _ownedTokensCount[_to] + 1;\n        // a. add the token id to the address receiving the token\n        _tokenOwner[_tokenId] = _to;\n        \n        emit Transfer(_from, _to, _tokenId);\n    }\n\n    function transferFrom(address _from, address _to, uint _tokenId) public override {\n        // there is additional function shas to be writtne to approve, but for now; its just owner\n        // we can get the additional notes from openzepplin library\n        // node_modules/openzepplin/token/ERC721/\n        require(isApprovedOrOwner(msg.sender, _tokenId));\n        _transferFrom(_from, _to, _tokenId);\n    }\n\n    function approve(address _to, uint _tokenId) public {\n        // a. require the person approving is the owner\n        // b. approve an address to a token (tokenId)\n        // c. require that we can't approve sending tokens to owner to the owner\n        // d. update the map of the approval addresses\n\n        address owner = ownerOf(_tokenId);\n        require(_to != owner, 'Error: approval to current owner');\n        require(msg.sender == owner, 'Current caller is not the owner');\n        _tokenApprovals[_tokenId] = _to; \n\n        emit Approval(owner, _to, _tokenId);\n    }\n\n    function isApprovedOrOwner(address spender, uint _tokenId) internal view returns(bool){\n        require(_exists(_tokenId), 'Token does not exists');\n        address owner = ownerOf(_tokenId);\n        return(spender == owner);\n    }\n\n    // we comment tyhese two events, since we have these two in IERC721.sol interface\n\n    // event Transfer(\n    //     address indexed from, \n    //     address indexed to, \n    //     uint256 indexed tokenId);\n\n    // event Approval(\n    //     address indexed owner,\n    //     address indexed approved,\n    //     uint indexed tokenId\n    // );\n}",
  "sourcePath": "/Users/bhanuprakashkandregula/Documents/programming/nft-marketplace-truffle-ganache/src/contracts/ERC721.sol",
  "compiler": {
    "name": "solc",
    "version": "0.8.11+commit.d7f03943.Emscripten.clang"
  },
  "schemaVersion": "3.4.4",
  "updatedAt": "2022-01-23T00:55:43.587Z",
  "devdoc": {
    "kind": "dev",
    "methods": {},
    "version": 1
  },
  "userdoc": {
    "kind": "user",
    "methods": {},
    "version": 1
  }
}