{
  "contractName": "ERC721Enumerable",
  "abi": [
    {
      "anonymous": false,
      "inputs": [
        {
          "indexed": true,
          "internalType": "address",
          "name": "from",
          "type": "address"
        },
        {
          "indexed": true,
          "internalType": "address",
          "name": "to",
          "type": "address"
        },
        {
          "indexed": true,
          "internalType": "uint256",
          "name": "tokenId",
          "type": "uint256"
        }
      ],
      "name": "Transfer",
      "type": "event"
    },
    {
      "inputs": [
        {
          "internalType": "address",
          "name": "_owner",
          "type": "address"
        }
      ],
      "name": "balanceOf",
      "outputs": [
        {
          "internalType": "uint256",
          "name": "",
          "type": "uint256"
        }
      ],
      "stateMutability": "view",
      "type": "function"
    },
    {
      "inputs": [
        {
          "internalType": "uint256",
          "name": "_tokenId",
          "type": "uint256"
        }
      ],
      "name": "ownerOf",
      "outputs": [
        {
          "internalType": "address",
          "name": "",
          "type": "address"
        }
      ],
      "stateMutability": "view",
      "type": "function"
    },
    {
      "inputs": [
        {
          "internalType": "address",
          "name": "_from",
          "type": "address"
        },
        {
          "internalType": "address",
          "name": "_to",
          "type": "address"
        },
        {
          "internalType": "uint256",
          "name": "_tokenId",
          "type": "uint256"
        }
      ],
      "name": "transferFrom",
      "outputs": [],
      "stateMutability": "nonpayable",
      "type": "function"
    },
    {
      "inputs": [],
      "name": "totalSupply",
      "outputs": [
        {
          "internalType": "uint256",
          "name": "",
          "type": "uint256"
        }
      ],
      "stateMutability": "view",
      "type": "function"
    },
    {
      "inputs": [
        {
          "internalType": "uint256",
          "name": "index",
          "type": "uint256"
        }
      ],
      "name": "tokenByIndex",
      "outputs": [
        {
          "internalType": "uint256",
          "name": "",
          "type": "uint256"
        }
      ],
      "stateMutability": "view",
      "type": "function"
    },
    {
      "inputs": [
        {
          "internalType": "address",
          "name": "owner",
          "type": "address"
        },
        {
          "internalType": "uint256",
          "name": "index",
          "type": "uint256"
        }
      ],
      "name": "tokenOfOwnerByIndex",
      "outputs": [
        {
          "internalType": "uint256",
          "name": "",
          "type": "uint256"
        }
      ],
      "stateMutability": "view",
      "type": "function"
    }
  ],
  "bytecode": "0x608060405234801561001057600080fd5b50610684806100206000396000f3fe608060405234801561001057600080fd5b506004361061007e577c0100000000000000000000000000000000000000000000000000000000600035046318160ddd811461008357806323b872dd1461009a5780632f745c59146100af5780634f6ccce7146100c25780636352211e146100d557806370a0823114610100575b600080fd5b6003545b6040519081526020015b60405180910390f35b6100ad6100a83660046104c3565b610113565b005b6100876100bd3660046104ff565b610123565b6100876100d0366004610529565b6101c1565b6100e86100e3366004610529565b610242565b604051600160a060020a039091168152602001610091565b61008761010e366004610542565b610280565b61011e8383836102c7565b505050565b600061012e83610280565b82106101845760405160e560020a62461bcd02815260206004820152601c60248201527f6f776e657220696e646578206973206f7574206f6620626f756e64730000000060448201526064015b60405180910390fd5b600160a060020a03831660009081526005602052604090208054839081106101ae576101ae610564565b9060005260206000200154905092915050565b60006101cc60035490565b821061021d5760405160e560020a62461bcd02815260206004820152601d60248201527f476c6f62616c20696e646578206973206f7574206f6620626f756e6473000000604482015260640161017b565b6003828154811061023057610230610564565b90600052602060002001549050919050565b600081815260208190526040812054600160a060020a03168061027a5760405160e560020a62461bcd02815260040161017b90610593565b92915050565b6000600160a060020a0382166102ab5760405160e560020a62461bcd02815260040161017b90610593565b50600160a060020a031660009081526001602052604090205490565b600160a060020a0382166103455760405160e560020a62461bcd028152602060048201526024808201527f4552433732313a205452414e5346455220544f20544845205a45524f2041444460448201527f5245535300000000000000000000000000000000000000000000000000000000606482015260840161017b565b82600160a060020a031661035882610242565b600160a060020a0316146103d75760405160e560020a62461bcd02815260206004820152603160248201527f547279696e6720746f207472616e736665722074686520746f6b656e2061646460448201527f7265737320646f6573206e6f74206f776e000000000000000000000000000000606482015260840161017b565b600160a060020a0383166000908152600160208190526040909120546103fd919061061f565b600160a060020a038085166000908152600160208190526040808320949094559185168152919091205461043091610636565b600160a060020a03808416600081815260016020908152604080832095909555858252819052838120805473ffffffffffffffffffffffffffffffffffffffff1916831790559251849391928716917fddf252ad1be2c89b69c2b068fc378daa952ba7f163c4a11628f55a4df523b3ef91a4505050565b8035600160a060020a03811681146104be57600080fd5b919050565b6000806000606084860312156104d857600080fd5b6104e1846104a7565b92506104ef602085016104a7565b9150604084013590509250925092565b6000806040838503121561051257600080fd5b61051b836104a7565b946020939093013593505050565b60006020828403121561053b57600080fd5b5035919050565b60006020828403121561055457600080fd5b61055d826104a7565b9392505050565b7f4e487b7100000000000000000000000000000000000000000000000000000000600052603260045260246000fd5b6020808252602b908201527f4552433732313a20416c657274202d2054686973206f776e657220686173207a60408201527f65726f2061646472657373000000000000000000000000000000000000000000606082015260800190565b7f4e487b7100000000000000000000000000000000000000000000000000000000600052601160045260246000fd5b600082821015610631576106316105f0565b500390565b60008219821115610649576106496105f0565b50019056fea2646970667358221220a6591e51ffdecd053335d3d353b290b86869119141804ae2c6197cf296d751b964736f6c634300080b0033",
  "immutableReferences": {},
  "source": "// SPDX-License-Identifier: MIT\npragma solidity ^0.8.0;\n\nimport './ERC721.sol';\n\ncontract ERC721Enumerable is ERC721 {\n    // Places to keep the value if all tokens count\n    uint256[] private _allTokens;\n\n    // mapping from tokenId to position in _allTokens array\n    mapping(uint => uint) private _allTokensIndex;\n\n    // mapping of owner to list of all owner tokens ids\n    mapping(address => uint[]) private _ownedTokens; \n\n    // mapping from token Id to index of the owner tokens list\n    mapping(uint => uint) private _ownedTokensIndex;\n\n    // return sthe total supply of the allTokens array\n    function totalSupply() public view returns(uint256) {\n        return _allTokens.length;\n    }\n\n    // This mint function will overide the another mint function in ERC721.sol \n    function _mint(address to, uint256 tokenId) internal override(ERC721)  {\n        // super - key word will aloow us to grand the mint function fron ERC721.sol file \n        super._mint(to, tokenId);\n        _addTokensToAllTokenEnumeration(tokenId);\n        _addTokensToOwnerEmumeration(to, tokenId);\n    }\n\n    // a. add tokens to our total supply - to allTokens array, and set the position of the token indexes\n    function _addTokensToAllTokenEnumeration(uint tokenId) private {\n        // This will give us back the index where token ins stored in allTokens list\n        _allTokensIndex[tokenId] = _allTokens.length; \n        // This will push the recent added token to an _allTokens array \n        _allTokens.push(tokenId);\n    }  \n\n    // b. what are all the tokens does specific owner consists of\n    function _addTokensToOwnerEmumeration(address to, uint tokenId) private {\n        // a. add address and tokenId to the ownedTokens\n        _ownedTokens[to].push(tokenId);\n        // b. ownedTokensIndex tokenId set to address of ownedTokens position\n        _ownedTokensIndex[tokenId] = _ownedTokens[to].length;\n    }\n\n    // a. one that returns tokenByIndex\n    function tokenByIndex(uint index) public view returns (uint){\n        // make sure that the index is not out of bounds of total supply\n        require(index < totalSupply(), 'Global index is out of bounds');\n        return _allTokens[index];\n    }\n\n    // b. another on ethat returns tokenOfOwnerByIndex\n    function tokenOfOwnerByIndex(address owner, uint index) public view returns(uint) {\n        require(index < balanceOf(owner), 'owner index is out of bounds');\n        return _ownedTokens[owner][index];\n    }\n\n    \n    \n}",
  "sourcePath": "/Users/bhanuprakashkandregula/Documents/programming/nft-marketplace-starter-kit/src/contracts/ERC721Enumerable.sol",
  "compiler": {
    "name": "solc",
    "version": "0.8.11+commit.d7f03943.Emscripten.clang"
  },
  "schemaVersion": "3.4.4",
  "updatedAt": "2022-01-22T10:54:38.338Z",
  "devdoc": {
    "kind": "dev",
    "methods": {},
    "version": 1
  },
  "userdoc": {
    "kind": "user",
    "methods": {},
    "version": 1
  }
}