{
  "contractName": "KryptoBird",
  "abi": [
    {
      "inputs": [],
      "stateMutability": "nonpayable",
      "type": "constructor"
    },
    {
      "anonymous": false,
      "inputs": [
        {
          "indexed": true,
          "internalType": "address",
          "name": "_owner",
          "type": "address"
        },
        {
          "indexed": true,
          "internalType": "address",
          "name": "_approved",
          "type": "address"
        },
        {
          "indexed": true,
          "internalType": "uint256",
          "name": "_tokenId",
          "type": "uint256"
        }
      ],
      "name": "Approval",
      "type": "event"
    },
    {
      "anonymous": false,
      "inputs": [
        {
          "indexed": true,
          "internalType": "address",
          "name": "_from",
          "type": "address"
        },
        {
          "indexed": true,
          "internalType": "address",
          "name": "_to",
          "type": "address"
        },
        {
          "indexed": true,
          "internalType": "uint256",
          "name": "_tokenId",
          "type": "uint256"
        }
      ],
      "name": "Transfer",
      "type": "event"
    },
    {
      "inputs": [
        {
          "internalType": "bytes4",
          "name": "interfaceId",
          "type": "bytes4"
        }
      ],
      "name": "_registerInterface",
      "outputs": [],
      "stateMutability": "nonpayable",
      "type": "function"
    },
    {
      "inputs": [
        {
          "internalType": "address",
          "name": "_to",
          "type": "address"
        },
        {
          "internalType": "uint256",
          "name": "_tokenId",
          "type": "uint256"
        }
      ],
      "name": "approve",
      "outputs": [],
      "stateMutability": "nonpayable",
      "type": "function"
    },
    {
      "inputs": [
        {
          "internalType": "address",
          "name": "_owner",
          "type": "address"
        }
      ],
      "name": "balanceOf",
      "outputs": [
        {
          "internalType": "uint256",
          "name": "",
          "type": "uint256"
        }
      ],
      "stateMutability": "view",
      "type": "function"
    },
    {
      "inputs": [
        {
          "internalType": "uint256",
          "name": "",
          "type": "uint256"
        }
      ],
      "name": "kryptoBirdz",
      "outputs": [
        {
          "internalType": "string",
          "name": "",
          "type": "string"
        }
      ],
      "stateMutability": "view",
      "type": "function"
    },
    {
      "inputs": [],
      "name": "name",
      "outputs": [
        {
          "internalType": "string",
          "name": "",
          "type": "string"
        }
      ],
      "stateMutability": "view",
      "type": "function"
    },
    {
      "inputs": [
        {
          "internalType": "uint256",
          "name": "_tokenId",
          "type": "uint256"
        }
      ],
      "name": "ownerOf",
      "outputs": [
        {
          "internalType": "address",
          "name": "",
          "type": "address"
        }
      ],
      "stateMutability": "view",
      "type": "function"
    },
    {
      "inputs": [
        {
          "internalType": "bytes4",
          "name": "interfaceId",
          "type": "bytes4"
        }
      ],
      "name": "supportsInterface",
      "outputs": [
        {
          "internalType": "bool",
          "name": "",
          "type": "bool"
        }
      ],
      "stateMutability": "view",
      "type": "function"
    },
    {
      "inputs": [],
      "name": "symbol",
      "outputs": [
        {
          "internalType": "string",
          "name": "",
          "type": "string"
        }
      ],
      "stateMutability": "view",
      "type": "function"
    },
    {
      "inputs": [
        {
          "internalType": "uint256",
          "name": "index",
          "type": "uint256"
        }
      ],
      "name": "tokenByIndex",
      "outputs": [
        {
          "internalType": "uint256",
          "name": "",
          "type": "uint256"
        }
      ],
      "stateMutability": "view",
      "type": "function"
    },
    {
      "inputs": [
        {
          "internalType": "address",
          "name": "owner",
          "type": "address"
        },
        {
          "internalType": "uint256",
          "name": "index",
          "type": "uint256"
        }
      ],
      "name": "tokenOfOwnerByIndex",
      "outputs": [
        {
          "internalType": "uint256",
          "name": "",
          "type": "uint256"
        }
      ],
      "stateMutability": "view",
      "type": "function"
    },
    {
      "inputs": [],
      "name": "totalSupply",
      "outputs": [
        {
          "internalType": "uint256",
          "name": "",
          "type": "uint256"
        }
      ],
      "stateMutability": "view",
      "type": "function"
    },
    {
      "inputs": [
        {
          "internalType": "address",
          "name": "_from",
          "type": "address"
        },
        {
          "internalType": "address",
          "name": "_to",
          "type": "address"
        },
        {
          "internalType": "uint256",
          "name": "_tokenId",
          "type": "uint256"
        }
      ],
      "name": "transferFrom",
      "outputs": [],
      "stateMutability": "nonpayable",
      "type": "function"
    },
    {
      "inputs": [
        {
          "internalType": "string",
          "name": "_kryptoBird",
          "type": "string"
        }
      ],
      "name": "mint",
      "outputs": [],
      "stateMutability": "nonpayable",
      "type": "function"
    }
  ],
  "bytecode": "0x60806040523480156200001157600080fd5b506040518060400160405280601081526020017f4268616e75204b616e64726567756c61000000000000000000000000000000008152506040518060400160405280600c81526020017f4268616e752053796d626f6c00000000000000000000000000000000000000008152508181620000ba7f75e79be6cc7b0fa1c9ef93c49173e275135de3af55610b234fd35ad9f20df3816200018e640100000000026401000000009004565b620000ee7f6c5b7360b116f8fd1d2a1ccb905de5c6a9e91e31b88b8db3cd997e184f357e9f6401000000006200018e810204565b8151620001039060019060208501906200025c565b508051620001199060029060208401906200025c565b506200015291507f86d85597e207351a6b62a46a8b3ad763589db208076d3952eb6054f16b4447a090506401000000006200018e810204565b620001867f2aa3f4710f58b303977da296b62cadae054c8971d883298d8ed6c6c0565c13c16401000000006200018e810204565b505062000358565b7fffffffff0000000000000000000000000000000000000000000000000000000080821614156200021f576040517f08c379a000000000000000000000000000000000000000000000000000000000815260206004820152601960248201527f4552433136353a20696e76616c696420696e7465726661636500000000000000604482015260640160405180910390fd5b7fffffffff00000000000000000000000000000000000000000000000000000000166000908152602081905260409020805460ff19166001179055565b8280546200026a9062000302565b90600052602060002090601f0160209004810192826200028e5760008555620002d9565b82601f10620002a957805160ff1916838001178555620002d9565b82800160010185558215620002d9579182015b82811115620002d9578251825591602001919060010190620002bc565b50620002e7929150620002eb565b5090565b5b80821115620002e75760008155600101620002ec565b6002810460018216806200031757607f821691505b6020821081141562000352577f4e487b7100000000000000000000000000000000000000000000000000000000600052602260045260246000fd5b50919050565b61109580620003686000396000f3fe608060405234801561001057600080fd5b50600436106100ec576000357c0100000000000000000000000000000000000000000000000000000000900480632f745c59116100a957806370a082311161008357806370a08231146101e657806393ab6e56146101f957806395d89b411461020c578063d85d3d271461021457600080fd5b80632f745c59146101955780634f6ccce7146101a85780636352211e146101bb57600080fd5b806301ffc9a7146100f1578063068417d91461013357806306fdde0314610148578063095ea7b31461015d57806318160ddd1461017057806323b872dd14610182575b600080fd5b61011e6100ff366004610d33565b600160e060020a03191660009081526020819052604090205460ff1690565b60405190151581526020015b60405180910390f35b610146610141366004610d33565b610227565b005b6101506102ae565b60405161012a9190610d94565b61014661016b366004610de3565b610340565b6006545b60405190815260200161012a565b610146610190366004610e0d565b610476565b6101746101a3366004610de3565b610499565b6101746101b6366004610e49565b610532565b6101ce6101c9366004610e49565b6105b3565b604051600160a060020a03909116815260200161012a565b6101746101f4366004610e62565b6105f1565b610150610207366004610e49565b610638565b6101506106e4565b610146610222366004610e96565b6106f3565b600160e060020a031980821614156102895760405160e560020a62461bcd02815260206004820152601960248201527f4552433136353a20696e76616c696420696e746572666163650000000000000060448201526064015b60405180910390fd5b600160e060020a0319166000908152602081905260409020805460ff19166001179055565b6060600180546102bd90610f47565b80601f01602080910402602001604051908101604052809291908181526020018280546102e990610f47565b80156103365780601f1061030b57610100808354040283529160200191610336565b820191906000526020600020905b81548152906001019060200180831161031957829003601f168201915b5050505050905090565b600061034b826105b3565b905080600160a060020a031683600160a060020a031614156103b25760405160e560020a62461bcd02815260206004820181905260248201527f4572726f723a20617070726f76616c20746f2063757272656e74206f776e65726044820152606401610280565b33600160a060020a0382161461040d5760405160e560020a62461bcd02815260206004820152601f60248201527f43757272656e742063616c6c6572206973206e6f7420746865206f776e6572006044820152606401610280565b600082815260056020526040808220805473ffffffffffffffffffffffffffffffffffffffff1916600160a060020a0387811691821790925591518593918516917f8c5be1e5ebec7d5bd14f71427d1e84f3dd0314c0f7b2291e5b200ac8c7c3b92591a4505050565b6104803382610824565b61048957600080fd5b6104948383836108ad565b505050565b60006104a4836105f1565b82106104f55760405160e560020a62461bcd02815260206004820152601c60248201527f6f776e657220696e646578206973206f7574206f6620626f756e6473000000006044820152606401610280565b600160a060020a038316600090815260086020526040902080548390811061051f5761051f610f85565b9060005260206000200154905092915050565b600061053d60065490565b821061058e5760405160e560020a62461bcd02815260206004820152601d60248201527f476c6f62616c20696e646578206973206f7574206f6620626f756e64730000006044820152606401610280565b600682815481106105a1576105a1610f85565b90600052602060002001549050919050565b600081815260036020526040812054600160a060020a0316806105eb5760405160e560020a62461bcd02815260040161028090610f9e565b92915050565b6000600160a060020a03821661061c5760405160e560020a62461bcd02815260040161028090610f9e565b50600160a060020a031660009081526004602052604090205490565b600a818154811061064857600080fd5b90600052602060002001600091509050805461066390610f47565b80601f016020809104026020016040519081016040528092919081815260200182805461068f90610f47565b80156106dc5780601f106106b1576101008083540402835291602001916106dc565b820191906000526020600020905b8154815290600101906020018083116106bf57829003601f168201915b505050505081565b6060600280546102bd90610f47565b600b816040516107039190610ffb565b9081526040519081900360200190205460ff161561078c5760405160e560020a62461bcd02815260206004820152602160248201527f4572726f72202d204b727970746f4269726420616c726561647920657869737460448201527f73000000000000000000000000000000000000000000000000000000000000006064820152608401610280565b600a805460018101825560009190915281516107cf917fc65a7bb8d6351c1cf70c95a316cc6a92839c986682d98bc35f958f4883f9d2a801906020840190610c9a565b50600a546000906107e290600190611030565b90506107ee3382610a8a565b6001600b836040516108009190610ffb565b908152604051908190036020019020805491151560ff199092169190911790555050565b600081815260036020526040812054600160a060020a031661088b5760405160e560020a62461bcd02815260206004820152601560248201527f546f6b656e20646f6573206e6f742065786973747300000000000000000000006044820152606401610280565b6000610896836105b3565b600160a060020a0385811691161491505092915050565b600160a060020a03821661092b5760405160e560020a62461bcd028152602060048201526024808201527f4552433732313a205452414e5346455220544f20544845205a45524f2041444460448201527f52455353000000000000000000000000000000000000000000000000000000006064820152608401610280565b82600160a060020a031661093e826105b3565b600160a060020a0316146109bd5760405160e560020a62461bcd02815260206004820152603160248201527f547279696e6720746f207472616e736665722074686520746f6b656e2061646460448201527f7265737320646f6573206e6f74206f776e0000000000000000000000000000006064820152608401610280565b600160a060020a0383166000908152600460205260409020546109e290600190611030565b600160a060020a038085166000908152600460205260408082209390935590841681522054610a12906001611047565b600160a060020a0380841660008181526004602090815260408083209590955585825260039052838120805473ffffffffffffffffffffffffffffffffffffffff1916831790559251849391928716917fddf252ad1be2c89b69c2b068fc378daa952ba7f163c4a11628f55a4df523b3ef91a4505050565b610a948282610b19565b610adc81600680546000838152600760205260408120829055600182018355919091527ff652222313e28459528d920b65115c16c04f3efc82aaedc97be59f3f377c0d3f0155565b600160a060020a03919091166000908152600860209081526040808320805460018101825581855283852001859055549383526009909152902055565b600160a060020a038216610b985760405160e560020a62461bcd02815260206004820152602360248201527f4552433732313a206d696e74696e6720746f20746865207a65726f206164647260448201527f65737300000000000000000000000000000000000000000000000000000000006064820152608401610280565b600081815260036020526040902054600160a060020a031615610c005760405160e560020a62461bcd02815260206004820152601c60248201527f4552433732313a20746f6b656e20616c7265616479206d696e746564000000006044820152606401610280565b6000818152600360209081526040808320805473ffffffffffffffffffffffffffffffffffffffff1916600160a060020a03871690811790915583526004909152902054610c4f906001611047565b600160a060020a0383166000818152600460205260408082209390935591518392907fddf252ad1be2c89b69c2b068fc378daa952ba7f163c4a11628f55a4df523b3ef908290a45050565b828054610ca690610f47565b90600052602060002090601f016020900481019282610cc85760008555610d0e565b82601f10610ce157805160ff1916838001178555610d0e565b82800160010185558215610d0e579182015b82811115610d0e578251825591602001919060010190610cf3565b50610d1a929150610d1e565b5090565b5b80821115610d1a5760008155600101610d1f565b600060208284031215610d4557600080fd5b8135600160e060020a031981168114610d5d57600080fd5b9392505050565b60005b83811015610d7f578181015183820152602001610d67565b83811115610d8e576000848401525b50505050565b6020815260008251806020840152610db3816040850160208701610d64565b601f01601f19169190910160400192915050565b8035600160a060020a0381168114610dde57600080fd5b919050565b60008060408385031215610df657600080fd5b610dff83610dc7565b946020939093013593505050565b600080600060608486031215610e2257600080fd5b610e2b84610dc7565b9250610e3960208501610dc7565b9150604084013590509250925092565b600060208284031215610e5b57600080fd5b5035919050565b600060208284031215610e7457600080fd5b610d5d82610dc7565b60e060020a634e487b7102600052604160045260246000fd5b600060208284031215610ea857600080fd5b813567ffffffffffffffff80821115610ec057600080fd5b818401915084601f830112610ed457600080fd5b813581811115610ee657610ee6610e7d565b604051601f8201601f19908116603f01168101908382118183101715610f0e57610f0e610e7d565b81604052828152876020848701011115610f2757600080fd5b826020860160208301376000928101602001929092525095945050505050565b600281046001821680610f5b57607f821691505b60208210811415610f7f5760e060020a634e487b7102600052602260045260246000fd5b50919050565b60e060020a634e487b7102600052603260045260246000fd5b6020808252602b908201527f4552433732313a20416c657274202d2054686973206f776e657220686173207a60408201527f65726f2061646472657373000000000000000000000000000000000000000000606082015260800190565b6000825161100d818460208701610d64565b9190910192915050565b60e060020a634e487b7102600052601160045260246000fd5b60008282101561104257611042611017565b500390565b6000821982111561105a5761105a611017565b50019056fea264697066735822122014b43c6ae3bb372e3a6316c23d942f0bfbafe9ad4330955abf442d1c585ebd0564736f6c634300080b0033",
  "immutableReferences": {},
  "source": "// SPDX-License-Identifier: MIT\npragma solidity ^0.8.0;\n\nimport './ERC721Connector.sol';\n\ncontract KryptoBird is ERC721Connector {\n\n    // Array to store our NFT's\n    string[] public kryptoBirdz;\n\n    // Chekcs if ID already exists\n    mapping(string => bool) _kryptoBirdzExists;\n\n    function mint(string memory _kryptoBird) public {\n\n        require(!_kryptoBirdzExists[_kryptoBird], 'Error - KryptoBird already exists');\n\n       // uint256 _id = KryptoBirdz.push(_kryptoBird); => deprecated function .push()\n       // .push no longer returns the length but a reference to the added element\n       \n        kryptoBirdz.push(_kryptoBird);\n        uint256 _id = kryptoBirdz.length - 1;\n        _mint(msg.sender, _id);\n        _kryptoBirdzExists[_kryptoBird] = true;\n    }\n\n    constructor() ERC721Connector('Bhanu Kandregula', 'Bhanu Symbol') {\n\n    }\n}\n\n",
  "sourcePath": "/Users/bhanuprakashkandregula/Documents/programming/nft-marketplace-truffle-ganache/src/contracts/KryptoBirdz.sol",
  "compiler": {
    "name": "solc",
    "version": "0.8.11+commit.d7f03943.Emscripten.clang"
  },
  "schemaVersion": "3.4.4",
  "updatedAt": "2022-01-23T00:55:43.649Z",
  "devdoc": {
    "kind": "dev",
    "methods": {},
    "version": 1
  },
  "userdoc": {
    "kind": "user",
    "methods": {},
    "version": 1
  }
}