{
  "contractName": "KryptoBird",
  "abi": [
    {
      "inputs": [],
      "stateMutability": "nonpayable",
      "type": "constructor"
    },
    {
      "anonymous": false,
      "inputs": [
        {
          "indexed": true,
          "internalType": "address",
          "name": "from",
          "type": "address"
        },
        {
          "indexed": true,
          "internalType": "address",
          "name": "to",
          "type": "address"
        },
        {
          "indexed": true,
          "internalType": "uint256",
          "name": "tokenId",
          "type": "uint256"
        }
      ],
      "name": "Transfer",
      "type": "event"
    },
    {
      "inputs": [
        {
          "internalType": "address",
          "name": "_owner",
          "type": "address"
        }
      ],
      "name": "balanceOf",
      "outputs": [
        {
          "internalType": "uint256",
          "name": "",
          "type": "uint256"
        }
      ],
      "stateMutability": "view",
      "type": "function",
      "constant": true
    },
    {
      "inputs": [
        {
          "internalType": "uint256",
          "name": "",
          "type": "uint256"
        }
      ],
      "name": "kryptoBirdz",
      "outputs": [
        {
          "internalType": "string",
          "name": "",
          "type": "string"
        }
      ],
      "stateMutability": "view",
      "type": "function",
      "constant": true
    },
    {
      "inputs": [],
      "name": "name",
      "outputs": [
        {
          "internalType": "string",
          "name": "",
          "type": "string"
        }
      ],
      "stateMutability": "view",
      "type": "function",
      "constant": true
    },
    {
      "inputs": [
        {
          "internalType": "uint256",
          "name": "_tokenId",
          "type": "uint256"
        }
      ],
      "name": "ownerOf",
      "outputs": [
        {
          "internalType": "address",
          "name": "",
          "type": "address"
        }
      ],
      "stateMutability": "view",
      "type": "function",
      "constant": true
    },
    {
      "inputs": [],
      "name": "symbol",
      "outputs": [
        {
          "internalType": "string",
          "name": "",
          "type": "string"
        }
      ],
      "stateMutability": "view",
      "type": "function",
      "constant": true
    },
    {
      "inputs": [
        {
          "internalType": "uint256",
          "name": "index",
          "type": "uint256"
        }
      ],
      "name": "tokenByIndex",
      "outputs": [
        {
          "internalType": "uint256",
          "name": "",
          "type": "uint256"
        }
      ],
      "stateMutability": "view",
      "type": "function",
      "constant": true
    },
    {
      "inputs": [
        {
          "internalType": "address",
          "name": "owner",
          "type": "address"
        },
        {
          "internalType": "uint256",
          "name": "index",
          "type": "uint256"
        }
      ],
      "name": "tokenOfOwnerByIndex",
      "outputs": [
        {
          "internalType": "uint256",
          "name": "",
          "type": "uint256"
        }
      ],
      "stateMutability": "view",
      "type": "function",
      "constant": true
    },
    {
      "inputs": [],
      "name": "totalSupply",
      "outputs": [
        {
          "internalType": "uint256",
          "name": "",
          "type": "uint256"
        }
      ],
      "stateMutability": "view",
      "type": "function",
      "constant": true
    },
    {
      "inputs": [
        {
          "internalType": "string",
          "name": "_kryptoBird",
          "type": "string"
        }
      ],
      "name": "mint",
      "outputs": [],
      "stateMutability": "nonpayable",
      "type": "function"
    }
  ],
  "bytecode": "0x608060405234801561001057600080fd5b50604080518082018252601081527f4268616e75204b616e64726567756c610000000000000000000000000000000060208083019182528351808501909452600c84527f4268616e752053796d626f6c00000000000000000000000000000000000000009084015281519192918391839161008d916000916100ab565b5080516100a19060019060208401906100ab565b5050505050610198565b8280546100b790610144565b90600052602060002090601f0160209004810192826100d9576000855561011f565b82601f106100f257805160ff191683800117855561011f565b8280016001018555821561011f579182015b8281111561011f578251825591602001919060010190610104565b5061012b92915061012f565b5090565b5b8082111561012b5760008155600101610130565b60028104600182168061015857607f821691505b60208210811415610192577f4e487b7100000000000000000000000000000000000000000000000000000000600052602260045260246000fd5b50919050565b610b40806101a76000396000f3fe608060405234801561001057600080fd5b50600436106100b0576000357c0100000000000000000000000000000000000000000000000000000000900480636352211e116100835780636352211e1461010b57806370a082311461013657806393ab6e561461014957806395d89b411461015c578063d85d3d271461016457600080fd5b806306fdde03146100b557806318160ddd146100d35780632f745c59146100e55780634f6ccce7146100f8575b600080fd5b6100bd610179565b6040516100ca9190610874565b60405180910390f35b6004545b6040519081526020016100ca565b6100d76100f33660046108c3565b61020b565b6100d76101063660046108ed565b6102a9565b61011e6101193660046108ed565b61032a565b604051600160a060020a0390911681526020016100ca565b6100d7610144366004610906565b610368565b6100bd6101573660046108ed565b6103af565b6100bd61045b565b610177610172366004610941565b61046a565b005b606060008054610188906109f2565b80601f01602080910402602001604051908101604052809291908181526020018280546101b4906109f2565b80156102015780601f106101d657610100808354040283529160200191610201565b820191906000526020600020905b8154815290600101906020018083116101e457829003601f168201915b5050505050905090565b600061021683610368565b821061026c5760405160e560020a62461bcd02815260206004820152601c60248201527f6f776e657220696e646578206973206f7574206f6620626f756e64730000000060448201526064015b60405180910390fd5b600160a060020a038316600090815260066020526040902080548390811061029657610296610a30565b9060005260206000200154905092915050565b60006102b460045490565b82106103055760405160e560020a62461bcd02815260206004820152601d60248201527f476c6f62616c20696e646578206973206f7574206f6620626f756e64730000006044820152606401610263565b6004828154811061031857610318610a30565b90600052602060002001549050919050565b600081815260026020526040812054600160a060020a0316806103625760405160e560020a62461bcd02815260040161026390610a49565b92915050565b6000600160a060020a0382166103935760405160e560020a62461bcd02815260040161026390610a49565b50600160a060020a031660009081526003602052604090205490565b600881815481106103bf57600080fd5b9060005260206000200160009150905080546103da906109f2565b80601f0160208091040260200160405190810160405280929190818152602001828054610406906109f2565b80156104535780601f1061042857610100808354040283529160200191610453565b820191906000526020600020905b81548152906001019060200180831161043657829003601f168201915b505050505081565b606060018054610188906109f2565b60098160405161047a9190610aa6565b9081526040519081900360200190205460ff16156105035760405160e560020a62461bcd02815260206004820152602160248201527f4572726f72202d204b727970746f4269726420616c726561647920657869737460448201527f73000000000000000000000000000000000000000000000000000000000000006064820152608401610263565b600880546001810182556000919091528151610546917ff3f7a9fe364faab93b216da50a3214154f22a0a2b415b23a84c8169e8b636ee3019060208401906107ab565b5060085460009061055990600190610adb565b9050610565338261059b565b60016009836040516105779190610aa6565b908152604051908190036020019020805491151560ff199092169190911790555050565b6105a5828261062a565b6105ed81600480546000838152600560205260408120829055600182018355919091527f8a35acfbc15ff81a39ae7d344fd709f28e8600b4aa8c65c6b64bfe7fe36bd19b0155565b600160a060020a03919091166000908152600660209081526040808320805460018101825581855283852001859055549383526007909152902055565b600160a060020a0382166106a95760405160e560020a62461bcd02815260206004820152602360248201527f4552433732313a206d696e74696e6720746f20746865207a65726f206164647260448201527f65737300000000000000000000000000000000000000000000000000000000006064820152608401610263565b600081815260026020526040902054600160a060020a0316156107115760405160e560020a62461bcd02815260206004820152601c60248201527f4552433732313a20746f6b656e20616c7265616479206d696e746564000000006044820152606401610263565b6000818152600260209081526040808320805473ffffffffffffffffffffffffffffffffffffffff1916600160a060020a03871690811790915583526003909152902054610760906001610af2565b600160a060020a0383166000818152600360205260408082209390935591518392907fddf252ad1be2c89b69c2b068fc378daa952ba7f163c4a11628f55a4df523b3ef908290a45050565b8280546107b7906109f2565b90600052602060002090601f0160209004810192826107d9576000855561081f565b82601f106107f257805160ff191683800117855561081f565b8280016001018555821561081f579182015b8281111561081f578251825591602001919060010190610804565b5061082b92915061082f565b5090565b5b8082111561082b5760008155600101610830565b60005b8381101561085f578181015183820152602001610847565b8381111561086e576000848401525b50505050565b6020815260008251806020840152610893816040850160208701610844565b601f01601f19169190910160400192915050565b8035600160a060020a03811681146108be57600080fd5b919050565b600080604083850312156108d657600080fd5b6108df836108a7565b946020939093013593505050565b6000602082840312156108ff57600080fd5b5035919050565b60006020828403121561091857600080fd5b610921826108a7565b9392505050565b60e060020a634e487b7102600052604160045260246000fd5b60006020828403121561095357600080fd5b813567ffffffffffffffff8082111561096b57600080fd5b818401915084601f83011261097f57600080fd5b81358181111561099157610991610928565b604051601f8201601f19908116603f011681019083821181831017156109b9576109b9610928565b816040528281528760208487010111156109d257600080fd5b826020860160208301376000928101602001929092525095945050505050565b600281046001821680610a0657607f821691505b60208210811415610a2a5760e060020a634e487b7102600052602260045260246000fd5b50919050565b60e060020a634e487b7102600052603260045260246000fd5b6020808252602b908201527f4552433732313a20416c657274202d2054686973206f776e657220686173207a60408201527f65726f2061646472657373000000000000000000000000000000000000000000606082015260800190565b60008251610ab8818460208701610844565b9190910192915050565b60e060020a634e487b7102600052601160045260246000fd5b600082821015610aed57610aed610ac2565b500390565b60008219821115610b0557610b05610ac2565b50019056fea264697066735822122021f89ac2d46a7070387ce1713c23a1560417224f41cb95656d2166e3b66b012664736f6c634300080b0033",
  "immutableReferences": {},
  "source": "// SPDX-License-Identifier: MIT\npragma solidity ^0.8.0;\n\nimport './ERC721Connector.sol';\n\ncontract KryptoBird is ERC721Connector {\n\n    // Array to store our NFT's\n    string[] public kryptoBirdz;\n\n    // Chekcs if ID already exists\n    mapping(string => bool) _kryptoBirdzExists;\n\n    function mint(string memory _kryptoBird) public {\n\n        require(!_kryptoBirdzExists[_kryptoBird], 'Error - KryptoBird already exists');\n\n       // uint256 _id = KryptoBirdz.push(_kryptoBird); => deprecated function .push()\n       // .push no longer returns the length but a reference to the added element\n       \n        kryptoBirdz.push(_kryptoBird);\n        uint256 _id = kryptoBirdz.length - 1;\n        _mint(msg.sender, _id);\n        _kryptoBirdzExists[_kryptoBird] = true;\n    }\n\n    constructor() ERC721Connector('Bhanu Kandregula', 'Bhanu Symbol') {\n\n    }\n}\n\n",
  "sourcePath": "/Users/bhanuprakashkandregula/Documents/programming/nft-marketplace-starter-kit/src/contracts/KryptoBirdz.sol",
  "compiler": {
    "name": "solc",
    "version": "0.8.11+commit.d7f03943.Emscripten.clang"
  },
  "schemaVersion": "3.4.4",
  "updatedAt": "2022-01-22T09:47:06.180Z",
  "networkType": "ethereum",
  "devdoc": {
    "kind": "dev",
    "methods": {},
    "version": 1
  },
  "userdoc": {
    "kind": "user",
    "methods": {},
    "version": 1
  }
}