{
  "contractName": "KryptoBird",
  "abi": [
    {
      "inputs": [],
      "stateMutability": "nonpayable",
      "type": "constructor"
    },
    {
      "anonymous": false,
      "inputs": [
        {
          "indexed": true,
          "internalType": "address",
          "name": "owner",
          "type": "address"
        },
        {
          "indexed": true,
          "internalType": "address",
          "name": "approved",
          "type": "address"
        },
        {
          "indexed": true,
          "internalType": "uint256",
          "name": "tokenId",
          "type": "uint256"
        }
      ],
      "name": "Approval",
      "type": "event"
    },
    {
      "anonymous": false,
      "inputs": [
        {
          "indexed": true,
          "internalType": "address",
          "name": "from",
          "type": "address"
        },
        {
          "indexed": true,
          "internalType": "address",
          "name": "to",
          "type": "address"
        },
        {
          "indexed": true,
          "internalType": "uint256",
          "name": "tokenId",
          "type": "uint256"
        }
      ],
      "name": "Transfer",
      "type": "event"
    },
    {
      "inputs": [
        {
          "internalType": "address",
          "name": "_to",
          "type": "address"
        },
        {
          "internalType": "uint256",
          "name": "_tokenId",
          "type": "uint256"
        }
      ],
      "name": "approve",
      "outputs": [],
      "stateMutability": "nonpayable",
      "type": "function"
    },
    {
      "inputs": [
        {
          "internalType": "address",
          "name": "_owner",
          "type": "address"
        }
      ],
      "name": "balanceOf",
      "outputs": [
        {
          "internalType": "uint256",
          "name": "",
          "type": "uint256"
        }
      ],
      "stateMutability": "view",
      "type": "function",
      "constant": true
    },
    {
      "inputs": [
        {
          "internalType": "uint256",
          "name": "",
          "type": "uint256"
        }
      ],
      "name": "kryptoBirdz",
      "outputs": [
        {
          "internalType": "string",
          "name": "",
          "type": "string"
        }
      ],
      "stateMutability": "view",
      "type": "function",
      "constant": true
    },
    {
      "inputs": [],
      "name": "name",
      "outputs": [
        {
          "internalType": "string",
          "name": "",
          "type": "string"
        }
      ],
      "stateMutability": "view",
      "type": "function",
      "constant": true
    },
    {
      "inputs": [
        {
          "internalType": "uint256",
          "name": "_tokenId",
          "type": "uint256"
        }
      ],
      "name": "ownerOf",
      "outputs": [
        {
          "internalType": "address",
          "name": "",
          "type": "address"
        }
      ],
      "stateMutability": "view",
      "type": "function",
      "constant": true
    },
    {
      "inputs": [],
      "name": "symbol",
      "outputs": [
        {
          "internalType": "string",
          "name": "",
          "type": "string"
        }
      ],
      "stateMutability": "view",
      "type": "function",
      "constant": true
    },
    {
      "inputs": [
        {
          "internalType": "uint256",
          "name": "index",
          "type": "uint256"
        }
      ],
      "name": "tokenByIndex",
      "outputs": [
        {
          "internalType": "uint256",
          "name": "",
          "type": "uint256"
        }
      ],
      "stateMutability": "view",
      "type": "function",
      "constant": true
    },
    {
      "inputs": [
        {
          "internalType": "address",
          "name": "owner",
          "type": "address"
        },
        {
          "internalType": "uint256",
          "name": "index",
          "type": "uint256"
        }
      ],
      "name": "tokenOfOwnerByIndex",
      "outputs": [
        {
          "internalType": "uint256",
          "name": "",
          "type": "uint256"
        }
      ],
      "stateMutability": "view",
      "type": "function",
      "constant": true
    },
    {
      "inputs": [],
      "name": "totalSupply",
      "outputs": [
        {
          "internalType": "uint256",
          "name": "",
          "type": "uint256"
        }
      ],
      "stateMutability": "view",
      "type": "function",
      "constant": true
    },
    {
      "inputs": [
        {
          "internalType": "address",
          "name": "_from",
          "type": "address"
        },
        {
          "internalType": "address",
          "name": "_to",
          "type": "address"
        },
        {
          "internalType": "uint256",
          "name": "_tokenId",
          "type": "uint256"
        }
      ],
      "name": "transferFrom",
      "outputs": [],
      "stateMutability": "nonpayable",
      "type": "function"
    },
    {
      "inputs": [
        {
          "internalType": "string",
          "name": "_kryptoBird",
          "type": "string"
        }
      ],
      "name": "mint",
      "outputs": [],
      "stateMutability": "nonpayable",
      "type": "function"
    }
  ],
  "bytecode": "0x60806040523480156200001157600080fd5b50604080518082018252601081527f4268616e75204b616e64726567756c610000000000000000000000000000000060208083019182528351808501909452600c84527f4268616e752053796d626f6c0000000000000000000000000000000000000000908401528151919291839183916200009091600091620000b1565b508051620000a6906001906020840190620000b1565b5050505050620001ad565b828054620000bf9062000157565b90600052602060002090601f016020900481019282620000e357600085556200012e565b82601f10620000fe57805160ff19168380011785556200012e565b828001600101855582156200012e579182015b828111156200012e57825182559160200191906001019062000111565b506200013c92915062000140565b5090565b5b808211156200013c576000815560010162000141565b6002810460018216806200016c57607f821691505b60208210811415620001a7577f4e487b7100000000000000000000000000000000000000000000000000000000600052602260045260246000fd5b50919050565b610f9d80620001bd6000396000f3fe608060405234801561001057600080fd5b50600436106100c6576000357c0100000000000000000000000000000000000000000000000000000000900480634f6ccce71161008e5780634f6ccce7146101365780636352211e1461014957806370a082311461017457806393ab6e561461018757806395d89b411461019a578063d85d3d27146101a257600080fd5b806306fdde03146100cb578063095ea7b3146100e957806318160ddd146100fe57806323b872dd146101105780632f745c5914610123575b600080fd5b6100d36101b5565b6040516100e09190610c95565b60405180910390f35b6100fc6100f7366004610ce4565b610247565b005b6005545b6040519081526020016100e0565b6100fc61011e366004610d0e565b6103a8565b610102610131366004610ce4565b6103cb565b610102610144366004610d4a565b610464565b61015c610157366004610d4a565b6104e5565b604051600160a060020a0390911681526020016100e0565b610102610182366004610d63565b610523565b6100d3610195366004610d4a565b61056a565b6100d3610616565b6100fc6101b0366004610d9e565b610625565b6060600080546101c490610e4f565b80601f01602080910402602001604051908101604052809291908181526020018280546101f090610e4f565b801561023d5780601f106102125761010080835404028352916020019161023d565b820191906000526020600020905b81548152906001019060200180831161022057829003601f168201915b5050505050905090565b6000610252826104e5565b905080600160a060020a031683600160a060020a031614156102e45760405160e560020a62461bcd02815260206004820152602260248201527f4572726f6f723a20617070726f76616c6b20746f2063757272656e74206f776e60448201527f657200000000000000000000000000000000000000000000000000000000000060648201526084015b60405180910390fd5b33600160a060020a0382161461033f5760405160e560020a62461bcd02815260206004820152601f60248201527f43757272656e742063616c6c6572206973206e6f7420746865206f776e65720060448201526064016102db565b600082815260046020526040808220805473ffffffffffffffffffffffffffffffffffffffff1916600160a060020a0387811691821790925591518593918516917f8c5be1e5ebec7d5bd14f71427d1e84f3dd0314c0f7b2291e5b200ac8c7c3b92591a4505050565b6103b23382610756565b6103bb57600080fd5b6103c68383836107df565b505050565b60006103d683610523565b82106104275760405160e560020a62461bcd02815260206004820152601c60248201527f6f776e657220696e646578206973206f7574206f6620626f756e64730000000060448201526064016102db565b600160a060020a038316600090815260076020526040902080548390811061045157610451610e8d565b9060005260206000200154905092915050565b600061046f60055490565b82106104c05760405160e560020a62461bcd02815260206004820152601d60248201527f476c6f62616c20696e646578206973206f7574206f6620626f756e647300000060448201526064016102db565b600582815481106104d3576104d3610e8d565b90600052602060002001549050919050565b600081815260026020526040812054600160a060020a03168061051d5760405160e560020a62461bcd0281526004016102db90610ea6565b92915050565b6000600160a060020a03821661054e5760405160e560020a62461bcd0281526004016102db90610ea6565b50600160a060020a031660009081526003602052604090205490565b6009818154811061057a57600080fd5b90600052602060002001600091509050805461059590610e4f565b80601f01602080910402602001604051908101604052809291908181526020018280546105c190610e4f565b801561060e5780601f106105e35761010080835404028352916020019161060e565b820191906000526020600020905b8154815290600101906020018083116105f157829003601f168201915b505050505081565b6060600180546101c490610e4f565b600a816040516106359190610f03565b9081526040519081900360200190205460ff16156106be5760405160e560020a62461bcd02815260206004820152602160248201527f4572726f72202d204b727970746f4269726420616c726561647920657869737460448201527f730000000000000000000000000000000000000000000000000000000000000060648201526084016102db565b600980546001810182556000919091528151610701917f6e1540171b6c0c960b71a7020d9f60077f6af931a8bbf590da0223dacf75c7af01906020840190610bcc565b5060095460009061071490600190610f38565b905061072033826109bc565b6001600a836040516107329190610f03565b908152604051908190036020019020805491151560ff199092169190911790555050565b600081815260026020526040812054600160a060020a03166107bd5760405160e560020a62461bcd02815260206004820152601560248201527f546f6b656e20646f6573206e6f7420657869737473000000000000000000000060448201526064016102db565b60006107c8836104e5565b600160a060020a0385811691161491505092915050565b600160a060020a03821661085d5760405160e560020a62461bcd028152602060048201526024808201527f4552433732313a205452414e5346455220544f20544845205a45524f2041444460448201527f524553530000000000000000000000000000000000000000000000000000000060648201526084016102db565b82600160a060020a0316610870826104e5565b600160a060020a0316146108ef5760405160e560020a62461bcd02815260206004820152603160248201527f547279696e6720746f207472616e736665722074686520746f6b656e2061646460448201527f7265737320646f6573206e6f74206f776e00000000000000000000000000000060648201526084016102db565b600160a060020a03831660009081526003602052604090205461091490600190610f38565b600160a060020a038085166000908152600360205260408082209390935590841681522054610944906001610f4f565b600160a060020a0380841660008181526003602090815260408083209590955585825260029052838120805473ffffffffffffffffffffffffffffffffffffffff1916831790559251849391928716917fddf252ad1be2c89b69c2b068fc378daa952ba7f163c4a11628f55a4df523b3ef91a4505050565b6109c68282610a4b565b610a0e81600580546000838152600660205260408120829055600182018355919091527f036b6384b5eca791c62761152d0c79bb0604c104a5fb6f4eb0703f3154bb3db00155565b600160a060020a03919091166000908152600760209081526040808320805460018101825581855283852001859055549383526008909152902055565b600160a060020a038216610aca5760405160e560020a62461bcd02815260206004820152602360248201527f4552433732313a206d696e74696e6720746f20746865207a65726f206164647260448201527f657373000000000000000000000000000000000000000000000000000000000060648201526084016102db565b600081815260026020526040902054600160a060020a031615610b325760405160e560020a62461bcd02815260206004820152601c60248201527f4552433732313a20746f6b656e20616c7265616479206d696e7465640000000060448201526064016102db565b6000818152600260209081526040808320805473ffffffffffffffffffffffffffffffffffffffff1916600160a060020a03871690811790915583526003909152902054610b81906001610f4f565b600160a060020a0383166000818152600360205260408082209390935591518392907fddf252ad1be2c89b69c2b068fc378daa952ba7f163c4a11628f55a4df523b3ef908290a45050565b828054610bd890610e4f565b90600052602060002090601f016020900481019282610bfa5760008555610c40565b82601f10610c1357805160ff1916838001178555610c40565b82800160010185558215610c40579182015b82811115610c40578251825591602001919060010190610c25565b50610c4c929150610c50565b5090565b5b80821115610c4c5760008155600101610c51565b60005b83811015610c80578181015183820152602001610c68565b83811115610c8f576000848401525b50505050565b6020815260008251806020840152610cb4816040850160208701610c65565b601f01601f19169190910160400192915050565b8035600160a060020a0381168114610cdf57600080fd5b919050565b60008060408385031215610cf757600080fd5b610d0083610cc8565b946020939093013593505050565b600080600060608486031215610d2357600080fd5b610d2c84610cc8565b9250610d3a60208501610cc8565b9150604084013590509250925092565b600060208284031215610d5c57600080fd5b5035919050565b600060208284031215610d7557600080fd5b610d7e82610cc8565b9392505050565b60e060020a634e487b7102600052604160045260246000fd5b600060208284031215610db057600080fd5b813567ffffffffffffffff80821115610dc857600080fd5b818401915084601f830112610ddc57600080fd5b813581811115610dee57610dee610d85565b604051601f8201601f19908116603f01168101908382118183101715610e1657610e16610d85565b81604052828152876020848701011115610e2f57600080fd5b826020860160208301376000928101602001929092525095945050505050565b600281046001821680610e6357607f821691505b60208210811415610e875760e060020a634e487b7102600052602260045260246000fd5b50919050565b60e060020a634e487b7102600052603260045260246000fd5b6020808252602b908201527f4552433732313a20416c657274202d2054686973206f776e657220686173207a60408201527f65726f2061646472657373000000000000000000000000000000000000000000606082015260800190565b60008251610f15818460208701610c65565b9190910192915050565b60e060020a634e487b7102600052601160045260246000fd5b600082821015610f4a57610f4a610f1f565b500390565b60008219821115610f6257610f62610f1f565b50019056fea26469706673582212204664673b7b0b0258e78ac4b2d37652413c79b90afe74c5ddd73882f2128daee164736f6c634300080b0033",
  "immutableReferences": {},
  "source": "// SPDX-License-Identifier: MIT\npragma solidity ^0.8.0;\n\nimport './ERC721Connector.sol';\n\ncontract KryptoBird is ERC721Connector {\n\n    // Array to store our NFT's\n    string[] public kryptoBirdz;\n\n    // Chekcs if ID already exists\n    mapping(string => bool) _kryptoBirdzExists;\n\n    function mint(string memory _kryptoBird) public {\n\n        require(!_kryptoBirdzExists[_kryptoBird], 'Error - KryptoBird already exists');\n\n       // uint256 _id = KryptoBirdz.push(_kryptoBird); => deprecated function .push()\n       // .push no longer returns the length but a reference to the added element\n       \n        kryptoBirdz.push(_kryptoBird);\n        uint256 _id = kryptoBirdz.length - 1;\n        _mint(msg.sender, _id);\n        _kryptoBirdzExists[_kryptoBird] = true;\n    }\n\n    constructor() ERC721Connector('Bhanu Kandregula', 'Bhanu Symbol') {\n\n    }\n}\n\n",
  "sourcePath": "/Users/bhanuprakashkandregula/Documents/programming/nft-marketplace-starter-kit/src/contracts/KryptoBirdz.sol",
  "compiler": {
    "name": "solc",
    "version": "0.8.11+commit.d7f03943.Emscripten.clang"
  },
  "schemaVersion": "3.4.4",
  "updatedAt": "2022-01-22T11:30:33.964Z",
  "networkType": "ethereum",
  "devdoc": {
    "kind": "dev",
    "methods": {},
    "version": 1
  },
  "userdoc": {
    "kind": "user",
    "methods": {},
    "version": 1
  }
}