{
  "contractName": "KryptoBird",
  "abi": [
    {
      "inputs": [],
      "stateMutability": "nonpayable",
      "type": "constructor"
    },
    {
      "anonymous": false,
      "inputs": [
        {
          "indexed": true,
          "internalType": "address",
          "name": "from",
          "type": "address"
        },
        {
          "indexed": true,
          "internalType": "address",
          "name": "to",
          "type": "address"
        },
        {
          "indexed": true,
          "internalType": "uint256",
          "name": "tokenId",
          "type": "uint256"
        }
      ],
      "name": "Transfer",
      "type": "event"
    },
    {
      "inputs": [
        {
          "internalType": "address",
          "name": "_owner",
          "type": "address"
        }
      ],
      "name": "balanceOf",
      "outputs": [
        {
          "internalType": "uint256",
          "name": "",
          "type": "uint256"
        }
      ],
      "stateMutability": "view",
      "type": "function",
      "constant": true
    },
    {
      "inputs": [
        {
          "internalType": "uint256",
          "name": "",
          "type": "uint256"
        }
      ],
      "name": "kryptoBirdz",
      "outputs": [
        {
          "internalType": "string",
          "name": "",
          "type": "string"
        }
      ],
      "stateMutability": "view",
      "type": "function",
      "constant": true
    },
    {
      "inputs": [],
      "name": "name",
      "outputs": [
        {
          "internalType": "string",
          "name": "",
          "type": "string"
        }
      ],
      "stateMutability": "view",
      "type": "function",
      "constant": true
    },
    {
      "inputs": [
        {
          "internalType": "uint256",
          "name": "_tokenId",
          "type": "uint256"
        }
      ],
      "name": "ownerOf",
      "outputs": [
        {
          "internalType": "address",
          "name": "",
          "type": "address"
        }
      ],
      "stateMutability": "view",
      "type": "function",
      "constant": true
    },
    {
      "inputs": [],
      "name": "symbol",
      "outputs": [
        {
          "internalType": "string",
          "name": "",
          "type": "string"
        }
      ],
      "stateMutability": "view",
      "type": "function",
      "constant": true
    },
    {
      "inputs": [
        {
          "internalType": "uint256",
          "name": "index",
          "type": "uint256"
        }
      ],
      "name": "tokenByIndex",
      "outputs": [
        {
          "internalType": "uint256",
          "name": "",
          "type": "uint256"
        }
      ],
      "stateMutability": "view",
      "type": "function",
      "constant": true
    },
    {
      "inputs": [
        {
          "internalType": "address",
          "name": "owner",
          "type": "address"
        },
        {
          "internalType": "uint256",
          "name": "index",
          "type": "uint256"
        }
      ],
      "name": "tokenOfOwnerByIndex",
      "outputs": [
        {
          "internalType": "uint256",
          "name": "",
          "type": "uint256"
        }
      ],
      "stateMutability": "view",
      "type": "function",
      "constant": true
    },
    {
      "inputs": [],
      "name": "totalSupply",
      "outputs": [
        {
          "internalType": "uint256",
          "name": "",
          "type": "uint256"
        }
      ],
      "stateMutability": "view",
      "type": "function",
      "constant": true
    },
    {
      "inputs": [
        {
          "internalType": "address",
          "name": "_from",
          "type": "address"
        },
        {
          "internalType": "address",
          "name": "_to",
          "type": "address"
        },
        {
          "internalType": "uint256",
          "name": "_tokenId",
          "type": "uint256"
        }
      ],
      "name": "transferFrom",
      "outputs": [],
      "stateMutability": "nonpayable",
      "type": "function"
    },
    {
      "inputs": [
        {
          "internalType": "string",
          "name": "_kryptoBird",
          "type": "string"
        }
      ],
      "name": "mint",
      "outputs": [],
      "stateMutability": "nonpayable",
      "type": "function"
    }
  ],
  "bytecode": "0x60806040523480156200001157600080fd5b50604080518082018252601081527f4268616e75204b616e64726567756c610000000000000000000000000000000060208083019182528351808501909452600c84527f4268616e752053796d626f6c0000000000000000000000000000000000000000908401528151919291839183916200009091600091620000b1565b508051620000a6906001906020840190620000b1565b5050505050620001ad565b828054620000bf9062000157565b90600052602060002090601f016020900481019282620000e357600085556200012e565b82601f10620000fe57805160ff19168380011785556200012e565b828001600101855582156200012e579182015b828111156200012e57825182559160200191906001019062000111565b506200013c92915062000140565b5090565b5b808211156200013c576000815560010162000141565b6002810460018216806200016c57607f821691505b60208210811415620001a7577f4e487b7100000000000000000000000000000000000000000000000000000000600052602260045260246000fd5b50919050565b610d8780620001bd6000396000f3fe608060405234801561001057600080fd5b50600436106100bb576000357c0100000000000000000000000000000000000000000000000000000000900480636352211e116100835780636352211e1461012b57806370a082311461015657806393ab6e561461016957806395d89b411461017c578063d85d3d271461018457600080fd5b806306fdde03146100c057806318160ddd146100de57806323b872dd146100f05780632f745c59146101055780634f6ccce714610118575b600080fd5b6100c8610197565b6040516100d59190610a7f565b60405180910390f35b6005545b6040519081526020016100d5565b6101036100fe366004610ace565b610229565b005b6100e2610113366004610b0a565b610239565b6100e2610126366004610b34565b6102d7565b61013e610139366004610b34565b610358565b604051600160a060020a0390911681526020016100d5565b6100e2610164366004610b4d565b610396565b6100c8610177366004610b34565b6103dd565b6100c8610489565b610103610192366004610b88565b610498565b6060600080546101a690610c39565b80601f01602080910402602001604051908101604052809291908181526020018280546101d290610c39565b801561021f5780601f106101f45761010080835404028352916020019161021f565b820191906000526020600020905b81548152906001019060200180831161020257829003601f168201915b5050505050905090565b6102348383836105c9565b505050565b600061024483610396565b821061029a5760405160e560020a62461bcd02815260206004820152601c60248201527f6f776e657220696e646578206973206f7574206f6620626f756e64730000000060448201526064015b60405180910390fd5b600160a060020a03831660009081526007602052604090208054839081106102c4576102c4610c77565b9060005260206000200154905092915050565b60006102e260055490565b82106103335760405160e560020a62461bcd02815260206004820152601d60248201527f476c6f62616c20696e646578206973206f7574206f6620626f756e64730000006044820152606401610291565b6005828154811061034657610346610c77565b90600052602060002001549050919050565b600081815260026020526040812054600160a060020a0316806103905760405160e560020a62461bcd02815260040161029190610c90565b92915050565b6000600160a060020a0382166103c15760405160e560020a62461bcd02815260040161029190610c90565b50600160a060020a031660009081526003602052604090205490565b600981815481106103ed57600080fd5b90600052602060002001600091509050805461040890610c39565b80601f016020809104026020016040519081016040528092919081815260200182805461043490610c39565b80156104815780601f1061045657610100808354040283529160200191610481565b820191906000526020600020905b81548152906001019060200180831161046457829003601f168201915b505050505081565b6060600180546101a690610c39565b600a816040516104a89190610ced565b9081526040519081900360200190205460ff16156105315760405160e560020a62461bcd02815260206004820152602160248201527f4572726f72202d204b727970746f4269726420616c726561647920657869737460448201527f73000000000000000000000000000000000000000000000000000000000000006064820152608401610291565b600980546001810182556000919091528151610574917f6e1540171b6c0c960b71a7020d9f60077f6af931a8bbf590da0223dacf75c7af019060208401906109b6565b5060095460009061058790600190610d22565b905061059333826107a6565b6001600a836040516105a59190610ced565b908152604051908190036020019020805491151560ff199092169190911790555050565b600160a060020a0382166106475760405160e560020a62461bcd028152602060048201526024808201527f4552433732313a205452414e5346455220544f20544845205a45524f2041444460448201527f52455353000000000000000000000000000000000000000000000000000000006064820152608401610291565b82600160a060020a031661065a82610358565b600160a060020a0316146106d95760405160e560020a62461bcd02815260206004820152603160248201527f547279696e6720746f207472616e736665722074686520746f6b656e2061646460448201527f7265737320646f6573206e6f74206f776e0000000000000000000000000000006064820152608401610291565b600160a060020a0383166000908152600360205260409020546106fe90600190610d22565b600160a060020a03808516600090815260036020526040808220939093559084168152205461072e906001610d39565b600160a060020a0380841660008181526003602090815260408083209590955585825260029052838120805473ffffffffffffffffffffffffffffffffffffffff1916831790559251849391928716917fddf252ad1be2c89b69c2b068fc378daa952ba7f163c4a11628f55a4df523b3ef91a4505050565b6107b08282610835565b6107f881600580546000838152600660205260408120829055600182018355919091527f036b6384b5eca791c62761152d0c79bb0604c104a5fb6f4eb0703f3154bb3db00155565b600160a060020a03919091166000908152600760209081526040808320805460018101825581855283852001859055549383526008909152902055565b600160a060020a0382166108b45760405160e560020a62461bcd02815260206004820152602360248201527f4552433732313a206d696e74696e6720746f20746865207a65726f206164647260448201527f65737300000000000000000000000000000000000000000000000000000000006064820152608401610291565b600081815260026020526040902054600160a060020a03161561091c5760405160e560020a62461bcd02815260206004820152601c60248201527f4552433732313a20746f6b656e20616c7265616479206d696e746564000000006044820152606401610291565b6000818152600260209081526040808320805473ffffffffffffffffffffffffffffffffffffffff1916600160a060020a0387169081179091558352600390915290205461096b906001610d39565b600160a060020a0383166000818152600360205260408082209390935591518392907fddf252ad1be2c89b69c2b068fc378daa952ba7f163c4a11628f55a4df523b3ef908290a45050565b8280546109c290610c39565b90600052602060002090601f0160209004810192826109e45760008555610a2a565b82601f106109fd57805160ff1916838001178555610a2a565b82800160010185558215610a2a579182015b82811115610a2a578251825591602001919060010190610a0f565b50610a36929150610a3a565b5090565b5b80821115610a365760008155600101610a3b565b60005b83811015610a6a578181015183820152602001610a52565b83811115610a79576000848401525b50505050565b6020815260008251806020840152610a9e816040850160208701610a4f565b601f01601f19169190910160400192915050565b8035600160a060020a0381168114610ac957600080fd5b919050565b600080600060608486031215610ae357600080fd5b610aec84610ab2565b9250610afa60208501610ab2565b9150604084013590509250925092565b60008060408385031215610b1d57600080fd5b610b2683610ab2565b946020939093013593505050565b600060208284031215610b4657600080fd5b5035919050565b600060208284031215610b5f57600080fd5b610b6882610ab2565b9392505050565b60e060020a634e487b7102600052604160045260246000fd5b600060208284031215610b9a57600080fd5b813567ffffffffffffffff80821115610bb257600080fd5b818401915084601f830112610bc657600080fd5b813581811115610bd857610bd8610b6f565b604051601f8201601f19908116603f01168101908382118183101715610c0057610c00610b6f565b81604052828152876020848701011115610c1957600080fd5b826020860160208301376000928101602001929092525095945050505050565b600281046001821680610c4d57607f821691505b60208210811415610c715760e060020a634e487b7102600052602260045260246000fd5b50919050565b60e060020a634e487b7102600052603260045260246000fd5b6020808252602b908201527f4552433732313a20416c657274202d2054686973206f776e657220686173207a60408201527f65726f2061646472657373000000000000000000000000000000000000000000606082015260800190565b60008251610cff818460208701610a4f565b9190910192915050565b60e060020a634e487b7102600052601160045260246000fd5b600082821015610d3457610d34610d09565b500390565b60008219821115610d4c57610d4c610d09565b50019056fea26469706673582212204f66945a01e68d64491d532285918a42efbe38bf4802e0bb430635840b12e0c264736f6c634300080b0033",
  "immutableReferences": {},
  "source": "// SPDX-License-Identifier: MIT\npragma solidity ^0.8.0;\n\nimport './ERC721Connector.sol';\n\ncontract KryptoBird is ERC721Connector {\n\n    // Array to store our NFT's\n    string[] public kryptoBirdz;\n\n    // Chekcs if ID already exists\n    mapping(string => bool) _kryptoBirdzExists;\n\n    function mint(string memory _kryptoBird) public {\n\n        require(!_kryptoBirdzExists[_kryptoBird], 'Error - KryptoBird already exists');\n\n       // uint256 _id = KryptoBirdz.push(_kryptoBird); => deprecated function .push()\n       // .push no longer returns the length but a reference to the added element\n       \n        kryptoBirdz.push(_kryptoBird);\n        uint256 _id = kryptoBirdz.length - 1;\n        _mint(msg.sender, _id);\n        _kryptoBirdzExists[_kryptoBird] = true;\n    }\n\n    constructor() ERC721Connector('Bhanu Kandregula', 'Bhanu Symbol') {\n\n    }\n}\n\n",
  "sourcePath": "/Users/bhanuprakashkandregula/Documents/programming/nft-marketplace-starter-kit/src/contracts/KryptoBirdz.sol",
  "compiler": {
    "name": "solc",
    "version": "0.8.11+commit.d7f03943.Emscripten.clang"
  },
  "schemaVersion": "3.4.4",
  "updatedAt": "2022-01-22T10:55:02.990Z",
  "networkType": "ethereum",
  "devdoc": {
    "kind": "dev",
    "methods": {},
    "version": 1
  },
  "userdoc": {
    "kind": "user",
    "methods": {},
    "version": 1
  }
}